:020000040000FA
:100000000C94AF010C94E0010C94E0010C94E0011D
:100010000C94E0010C94E0010C94E0010C94E001DC
:100020000C94E0010C94E0010C94E0010C94E001CC
:100030000C94E0010C94FE0C0C94E0010C94E00193
:100040000C94E0010C94E0010C94E0010C94E001AC
:100050000C94E0010C94E0010C94E0010C94B40CBD
:100060000C94E0010C94880D0C945E0D0C94E0014E
:100070000C94E0010C94E0010C94E0010C94E0017C
:100080000C94E0010C94E0010C94E0010C94E0016C
:100090000C94E0010C94E0010C94E0010C94BE0D72
:1000A0000C94E0010C94E0010C94E0010C94E0014C
:1000B0000C94E0010C94E0010C94E0010C94E0013C
:1000C0000C94E0010C94E0010C94E0010C94E0012C
:1000D0000C94E0010C94E0010C94E0010C94E0011C
:1000E0000C94E00107634236B79BD8A71A396856CB
:1000F00018AEBAAB558C1D3CB7CC5763BD6DEDFD4A
:10010000753EF6177231BF000000803F0800000006
:10011000BE922449123EABAAAA2ABECDCCCC4C3EFC
:1001200000000080BEABAAAAAA3E00000000BF00EB
:100130000000803F0000000000084178D3BB4387E7
:10014000D1133D190E3CC3BD4282AD2B3E68EC82FB
:1001500076BED98FE1A93E4C80EFFFBE01C4FF7F80
:100160003F00000000000C9497020C94580A0C9475
:1001700084080C9405140C94C70A0C9402070C9480
:10018000A0020C9456140C9483140C948D020C94BD
:10019000A0070C9442090C9460020C948D140C94EA
:1001A00079140C9433080C9465140C94AE070C94D9
:1001B0007D070C9400140C94FB080C9414140C94FC
:1001C00075020C9430140C944C140C9489020C9409
:1001D0007F020C9493020C940E090C94E6070C9485
:1001E0009B020C9466020C940A140C9442140C9416
:1001F00028140C9438140C94EC080C947B020C9486
:1002000050070C946E020C9403070C94A1020C94FA
:1002100015090C9485020C94A5020C94E20E0C9422
:1002200072020C946F140C94EB080C9497140C94B9
:100230001E140C946A020C948C0700002100240008
:1002400027002A002D0030003300010100000401C6
:1002500007010A0100000A0B02090C0D0E08070332
:100260000401000000000000000000000000000089
:10027000000000000000000000000000000000007E
:10028000121110000000000000000000000000003B
:10029000000000000000000000000000200023001B
:1002A000260029002C002F0032000001000003016D
:1002B0000601090100002200250028002B002E0065
:1002C0003100340002010000050108010B010205A4
:1002D000050505070508080808020202020A0A08BF
:1002E00008040404040101010101010101030303E5
:1002F0000303030303040707070C0C0C0C0C0C0C82
:100300000C0202020206060606060606060B0B0B88
:100310000B0B0B0B0B0102102020080810204010C3
:1003200020408002010201080402010102040810B9
:1003300020408080402010080402018004020180D7
:100340004020100804020108040201010204081000
:10035000204080010204081020408000E20E112499
:100360001FBECFEFD1E2DEBFCDBF00E00CBF13E078
:10037000A0E0B2E0E8E6F1E300E00BBF02C00790C6
:100380000D92AC3FB107D9F725E0ACEFB3E001C067
:100390001D92A83AB207E1F711E0CFEAD1E000E000
:1003A00006C021970109802FFE010E94AA18CE3AAB
:1003B000D10780E00807A9F70E944A0F0C94B218F1
:1003C0000C940000E0EEF4E0A089B18982E08C9307
:1003D000A485B5851C92A685B7858FEC8C93108E6D
:1003E000A489B58986E08C93A289B3898C918061B8
:1003F0008C93A289B3898C9188608C93A289B389EC
:100400008C9180688C930288F389E02D80818F7DA8
:1004100080830895CF92DF92EF92FF92CF93DF9384
:10042000B0919005A0E08111AB2F8091910590E0F3
:10043000880F991FAC0146565D4FC0909605D0902D
:100440009705E0909805F090990530E020E0FA01DA
:10045000C591D491E881B90190E080E0EB23EA13E3
:100460000AC02F5F3F4F6C157D058E059F0578F301
:100470006FEF7FEFCB01DF91CF91FF90EF90DF9097
:10048000CF9008958150823108F05AC0E82FF0E0F3
:100490008827E25BFD4F8F4F0C94AA186E02720200
:1004A000600266026A02A00275027B027F02850278
:1004B00089028D0293029702A0029B02A102A5026B
:1004C000809180008F7780938000089580918000D4
:1004D0008F7DF9CF80918000877FF5CF84B58F77AE
:1004E00084BD089584B58F7DFBCF8091B0008F7758
:1004F0008093B00008958091B0008F7DF9CF8091F6
:1005000090008F77809390000895809190008F7D68
:10051000F9CF80919000877FF5CF8091A0008F77F1
:100520008093A00008958091A0008F7DF9CF8091E5
:10053000A000877FF5CF809120018F7780932001E5
:100540000895809120018F7DF9CF80912001877FD0
:10055000F5CF1F93CF93DF93282F30E0F901EC5AAA
:10056000FD4F8491F901EB5EFC4FD491F901E15309
:10057000FD4FC491CC23A9F0162F81110E94420295
:10058000EC2FF0E0EE0FFF1FEC54FD4FA591B4915E
:100590008FB7F894EC91111108C0D095DE23DC934D
:1005A0008FBFDF91CF911F910895DE2BF8CFCF93AE
:1005B000DF9390E0FC01EB5EFC4F249181539D4F53
:1005C000FC0184918823D1F090E0880F991FFC01F1
:1005D000E65CFD4FA591B491FC01EC54FD4FC59133
:1005E000D491623071F49FB7F8943C91822F80953A
:1005F00083238C93E8812E2B28839FBFDF91CF919B
:1006000008958FB7F894EC912E2B2C938FBFF6CFD3
:100610008F929F92AF92BF92CF92DF92EF92FF9212
:10062000CF936C0180910002863069F08F3F09F40E
:10063000A2C0CF91FF90EF90DF90CF90BF90AF908E
:100640009F908F900895EEECF2E0C491C7FDF1CF3A
:1006500061E086E00E94D702F12CE12CCC23E1F08E
:10066000B12CA12CC23009F05AC1750160E970EDBE
:1006700083E090E0A50196010E948B18BA01A901C0
:10068000415051096109710983E04F3F51056105EE
:10069000710509F00CF45DC060E072E18AE790E05A
:1006A000A70196010E948B1849015A0168E478EE6F
:1006B00081E090E0A70196010E948B18BA01A90180
:1006C0004150510961097109CC2309F4ECC1C230D0
:1006D00009F0E7C184E04F3F510561057105C9F19B
:1006E000C4F164E274EF80E090E0A70196010E94FB
:1006F0008B18BA01A901415051096109710985E0BE
:100700004F3F51056105710521F118F162E17AE76A
:1007100080E090E0A70196010E948B18BA01A90120
:10072000415051096109710986E04F3F510561054A
:10073000710579F074F0B501A4019AE0759567959B
:10074000579547959A95D1F741505109610971091B
:1007500087E09091B100987F892B8093B100C230DF
:1007600009F47DC10CF074C1CC2309F4BCC1C130C3
:1007700009F05FCF00C186E080930002EEECF2E06A
:10078000C4918C2FCF3F09F454CFC23009F468C014
:1007900060F4CC2379F1C13009F444C087FD49CF1E
:1007A00061E086E00E94D7025BCFC43009F499C0B3
:1007B00008F478C0C53091F7109220011092210101
:1007C00080912101886080932101809121018160C5
:1007D00080932101E5EDF2E0E491F0E0EE0FFF1FE0
:1007E000EC54FD4F85919491EBE1F3E0E491E093BB
:1007F000C0042ECF14BC15BC84B5826084BD85B501
:10080000816085BDE5EDF2E0E491F0E0EE0FFF1FC1
:10081000EC54FD4F85919491EBE1F3E0E491E0938A
:10082000C70416CF10928000109281008091810041
:100830008860809381008091810081608093810035
:10084000E5EDF2E0E491F0E0EE0FFF1FEC54FD4F18
:1008500085919491EBE1F3E0E491E093C604F8CE46
:100860001092B0001092B1008091B000826080932D
:10087000B0008091B10081608093B100E5EDF2E0BD
:10088000E491F0E0EE0FFF1FEC54FD4F8591949141
:100890009093C5048093C404EBE1F3E0E491E0930A
:1008A000C304D6CE109290001092910080919100D6
:1008B0008860809391008091910081608093910085
:1008C000E5EDF2E0E491F0E0EE0FFF1FEC54FD4F98
:1008D00085919491EBE1F3E0E491E093C204C3E0ED
:1008E000B7CE1092A0001092A1008091A100886064
:1008F0008093A1008091A10081608093A100E5ED2B
:10090000F2E0E491F0E0EE0FFF1FEC54FD4F859113
:100910009491EBE1F3E0E491E093C10499CE60E0BF
:1009200072E18AE790E0A50196010E948B18BA0156
:10093000A901415051096109710991E04115510521
:1009400081E0680771057CF068E478EE81E090E072
:10095000A50196010E948B18BA01A90141505109C5
:100960006109710993E0C130D9F480918100887FD9
:10097000892B8093810050938900409388008FEFEA
:100980009FEFDC018093D8049093D904A093DA04FC
:10099000B093DB0480916F00826080936F0049CE3A
:1009A000C330D9F480919100887F892B8093910086
:1009B00050939900409398008FEF9FEFDC01809354
:1009C000D0049093D104A093D204B093D304809127
:1009D00071008260809371002CCEC430D9F4809174
:1009E000A100887F892B8093A1005093A900409398
:1009F000A8008FEF9FEFDC018093CC049093CD048F
:100A0000A093CE04B093CF04809172008260809353
:100A100072000FCEC53009F0A2CE80912101887FEF
:100A2000892B8093210150932901409328018FEF56
:100A30009FEFDC018093C8049093C904A093CA047B
:100A4000B093CB0480917300826080937300F1CDEA
:100A5000C43059F20CF4ACCFC53029F3EACD409341
:100A6000B3008FEF9FEFDC018093D4049093D50403
:100A7000A093D604B093D7048091700082608093D5
:100A80007000D7CDB501A4018AE07595679557959B
:100A900047958A95D1F7415051096109710995E04F
:100AA0001EC084E02DCE93E04F3F510561057105D6
:100AB000B1F0ACF062E17AE780E090E0A701960146
:100AC0000E948B18BA01A9014150510961097109AD
:100AD0004F3F51056105710509F0A4F694E085B515
:100AE000887F892B85BD47BD8FEF9FEFDC01809309
:100AF000DC049093DD04A093DE04B093DF048091C6
:100B00006E00826080936E0094CD90917B00977F01
:100B100090937B008653806480937C0080917A0060
:100B2000806480937A0080917A0086FDFCCF80916A
:100B300078009091790008953FB7F8948091B804B7
:100B40009091B904A091BA04B091BB0426B5A89BBA
:100B500005C02F3F19F00196A11DB11D3FBFBA2F4F
:100B6000A92F982F8827BC01CD01620F711D811D0F
:100B7000911D42E0660F771F881F991F4A95D1F794
:100B800008958F929F92AF92BF92CF92DF92EF9291
:100B9000FF924B015C010E949C056B017C010E944D
:100BA0009C056C197D098E099F09683E734081057B
:100BB0009105A8F321E0821A9108A108B10888EEF6
:100BC000C80E83E0D81EE11CF11C81149104A1041D
:100BD000B10429F7FF90EF90DF90CF90BF90AF90D6
:100BE0009F908F900895CF92DF92EF92FF920F9394
:100BF0001F93CF93DF93CDB7DEB7C054D1400FB66C
:100C0000F894DEBF0FBECDBF2FB7F8948091BC041F
:100C10009091BD04A091BE04B091BF042FBF40913C
:100C200092055091930560919405709195058C0102
:100C30009D01041B150B260B370BB901A801403D84
:100C400057406105710590F480919A05C05CDE4FB4
:100C50000FB6F894DEBF0FBECDBFDF91CF911F91CD
:100C60000F91FF90EF90DF90CF90089580939205C1
:100C700090939305A0939405B093950510928D05DC
:100C800010928C0510928B0510928A05109289059E
:100C900062E080918E050E94D70261E070E080E002
:100CA00090E00E94C10561E080918E050E94D7020C
:100CB00060E080918E050E94A90280918F05855188
:100CC000823020F58BE291E10197F1F762E08091AB
:100CD0008E050E94D70280919B0590E0823091059D
:100CE00038F0880F991F880F991F05970197F1F722
:100CF000F89480E00E940A026F3F7F4F8F4F9F4F12
:100D000061F410929A05789480E0A0CF64E170E0DD
:100D100080E090E00E94C105D9CF81E00E940A02E4
:100D20006F3F7F4F8F4F9F4F61F38E010F5F1F4FBC
:100D30006E018FEBC81A8EEFD80A780180E00E940E
:100D40000A02F701608371838283938381E00E94AA
:100D50000A02F7016483758386839783F8E0EF0EB8
:100D6000F11CEC14FD0451F7789430E020E0F80118
:100D7000C080D180E280F380448155816681778193
:100D8000FFEFCF16DF06EF06FF0631F04F3F8FEF84
:100D900058076807780719F410929A05B5CFF9013A
:100DA00083E0F595E7958A95E1F7E757FA4F80815B
:100DB000880FC416D506E606F70610F180832F5F6C
:100DC0003F4F085F1F4F2832310589F640918D054E
:100DD0002091890580918A05280F3327331F809140
:100DE0008B05280F311D80918C05820F932F911D4B
:100DF00099274817190681F681E080939A0526CF36
:100E00008160DCCF089508959091000289130DC090
:100E1000EEECF2E0E4919FEF90930002E230E1F01B
:100E200038F4EE2381F0E13089F060E00C94A902FF
:100E3000E43049F110F1E530C1F7909173009D7FE6
:100E400090937300F2CF10926E00EFCF90916F00ED
:100E50009D7F90936F00E9CF909170009D7F90935C
:100E6000700091E09093B0009091B100987F9460F1
:100E70009093B1001092B300D8CF909171009D7FF4
:100E800090937100D2CF909172009D7F90937200E9
:100E9000CCCFDC01ED91FC910190F081E02D199413
:100EA000AF92BF92CF92DF92EF92FF920F931F9378
:100EB000CF93DF936C017B018B01040F151FEB01B6
:100EC0005E01AE18BF08C017D10759F06991D6016D
:100ED000ED91FC910190F081E02DC6011995892BCF
:100EE00079F7C501DF91CF911F910F91FF90EF909E
:100EF000DF90CF90BF90AF900895FC01538D448D4B
:100F0000252F30E0842F90E0821B930B541710F0B4
:100F1000CF96089501970895FC01918D828D9817C1
:100F200061F0A28DAE0FBF2FB11D5D968C91928D99
:100F30009F5F9F73928F90E008958FEF9FEF0895CA
:100F4000FC01918D828D981731F0828DE80FF11D93
:100F5000858D90E008958FEF9FEF0895FC01918DAE
:100F6000228D892F90E0805C9F4F821B91098F73A7
:100F70009927089580EE94E00E94AE0721E0892B26
:100F800009F420E0822F0895FC01A48DA80FB92F49
:100F9000B11DA35ABF4F2C91848D90E001968F73A1
:100FA0009927848FA689B7892C93A089B1898C91C0
:100FB000837080648C93938D848D981306C002880F
:100FC000F389E02D80818F7D80830895EF92FF92D9
:100FD0000F931F93CF93DF93EC0181E0888F9B8D5C
:100FE0008C8D98131AC0E889F989808185FF15C016
:100FF0009FB7F894EE89FF896083E889F989808139
:101000008370806480839FBF81E090E0DF91CF9107
:101010001F910F91FF90EF900895F62E0B8D10E029
:101020000F5F1F4F0F731127E02E8C8D8E110CC098
:101030000FB607FCFACFE889F989808185FFF5CFE3
:10104000CE010E94C407F1CFEB8DEC0FFD2FF11DF7
:10105000E35AFF4FF0829FB7F8940B8FEA89FB8920
:1010600080818062CFCFCF93DF93EC01888D88237E
:10107000B9F0AA89BB89E889F9898C9185FD03C0FB
:10108000808186FD0DC00FB607FCF7CF8C9185FFE0
:10109000F2CF808185FFEDCFCE010E94C407E9CF5A
:1010A000DF91CF91089580E090E0892B29F00E9494
:1010B000BA0781110E94000080E090E0892B49F07E
:1010C00080E090E0892B29F00E94000081110E94AD
:1010D000000080E090E0892B49F080E090E0892BCF
:1010E00029F00E94000081110E94000080E090E041
:1010F000892B49F080E090E0892B29F00E940000C4
:1011000081110C9400000895089520913D04260F4C
:101110003327331F21323105ECF420918604FC0182
:1011200090E080E0243069F082E00895A0913D04D1
:101130002191AC01435E5B4FA40FB52FB11D2C93E1
:101140000196861798F380913D04680F60933D04E3
:1011500080E0089581E008951092860481E08093F4
:1011600085041092600461E084E10E94A90261E0BC
:1011700085E10E94A902E9EBF0E080818E7F808307
:1011800080818D7F808388E48093B80085E480939C
:10119000BC000895CF93DF9391E090931C048823C3
:1011A000B9F0C091B800D091BA008091BC008A7BA0
:1011B0008093BC0060E084E10E94A90260E085E1C8
:1011C0000E94A9020E94AC08D093BA00C093B80054
:1011D000DF91CF9108950895E091B5048091B40412
:1011E000E81730F4F0E0E450FC4F808190E008957F
:1011F0008FEF9FEF08959091B5048091B4042FEF85
:101200003FEF981748F4E92FF0E0E450FC4F2081BD
:1012100030E09F5F9093B504C90108958091B404B4
:101220009091B504891B990B0895CF92DF92EF92AC
:10123000FF920F931F93CF93DF937C01CB018A0121
:1012400020918C04222389F0EB016B01C40ED51E82
:10125000CC15DD0569F06991D701ED91FC91019004
:10126000F081E02DC7011995F3CF642F0E94850806
:10127000C801DF91CF911F910F91FF90EF90DF9008
:10128000CF900895CF93DF931F92CDB7DEB76983D8
:1012900020918C042223F9F02091B204203258F0DE
:1012A00021E030E0FC013383228390E080E00F9066
:1012B000DF91CF9108958091B304E82FF0E0E357D8
:1012C000FB4F998190838F5F8093B3048093B20426
:1012D00081E090E0ECCF61E0CE0101960E948508AC
:1012E000F7CFCF92DF92EF92FF920F931F93CF939E
:1012F000DF93FC01C48121E020938C04C093AD04F2
:101300001092B3041092B2048385682B8DE795E0A8
:101310000E944209D091B204D13208F092C00E94DA
:101320009C056B017C0180918604811165C082E07F
:101330008093860481E0809385048FEF80938404FA
:1013400010928304D0938204ADE8B4E0E2E6F4E0C6
:1013500080E0D81385C01092610480916104CC0FA5
:10136000C82BC093610480916004813009F07CC077
:10137000109260040E949C056B017C0180916104C5
:101380008093BB008091880490918904A0918A0485
:10139000B0918B04892B8A2B8B2B99F00E949C0592
:1013A000009188041091890420918A0430918B0463
:1013B0006C197D098E099F09061717072807390739
:1013C000E0F18091BC0083FDD9CF85EC8093BC0017
:1013D0000E949C056B017C0180918604823009F497
:1013E00045C0809184048F3F61F1809184048032F4
:1013F00041F18091840425C08091880490918904F2
:10140000A0918A04B0918B04892B8A2B8B2B09F431
:101410008ACF0E949C050091880410918904209134
:101420008A0430918B046C197D098E099F09061777
:1014300017072807390708F076CF809187040E94A4
:10144000CA081092B3041092B20410928C04DF9177
:10145000CF911F910F91FF90EF90DF90CF90089563
:101460009D9191938F5F75CF85EEB0CF8091880469
:1014700090918904A0918A04B0918B04892B8A2BC6
:101480008B2B09F4A9CF0E949C0500918804109130
:10149000890420918A0430918B046C197D098E098E
:1014A0009F09061717072807390708F095CFC5CFFA
:1014B00090E080E008950F931F93CF938C01C62F87
:1014C0000E9471096C2F6460C8010E9471096C2F21
:1014D0006B7FC8010E94710983EC90E00197F1F7DE
:1014E000CF911F910F9108950F931F93CF93DF9387
:1014F0008C01D62FC42F607F642B0E945B0A80E191
:10150000D89FB00111246C2BC801DF91CF911F919E
:101510000F910C945B0ACF93DF9300D000D01F9201
:101520001F92CDB7DEB798E0E1E0F2E0DE01119660
:1015300001900D929A95E1F79091A405961708F401
:101540006FEF262F30E0220F331F41E050E04C0FA9
:101550005D1F240F351FF9016081680F606840E04E
:101560008CE995E028960FB6F894DEBF0FBECDBF8C
:10157000DF91CF910C94740A40E061E08CE995E032
:101580000E94740A8BE39FE10197F1F7089541E00F
:101590000E94740A81E090E00895FB010190002010
:1015A000E9F73197AF01461B570BDC01ED91FC9138
:1015B0000280F381E02D19948F929F92AF92BF9297
:1015C000EF92FF920F931F93CF93DF93CDB7DEB7C8
:1015D000A1970FB6F894DEBF0FBECDBF7C01FA0114
:1015E000CB0119A2223008F42AE08E010F5D1F4FB3
:1015F000822E912CB12CA12CBF01A50194010E9437
:101600006918F901CA016A300CF5605DD8016E9362
:101610008D01232B242B252B79F790E080E0109768
:1016200021F0BD01C7010E94CD0AA1960FB6F89422
:10163000DEBF0FBECDBFDF91CF911F910F91FF9005
:10164000EF90BF90AF909F908F900895695CDECF30
:10165000CF92DF92EF92FF920F931F93CF93DF937E
:101660006B01770FEE08FF08F7FE1BC0EC016DE27F
:101670000E9449078C0144275527BA014C195D097E
:101680006E097F092AE0CE010E94DC0A800F911FBB
:10169000DF91CF911F910F91FF90EF90DF90CF904E
:1016A00008952AE0B701A601DF91CF911F910F9114
:1016B000FF90EF90DF90CF900C94DC0ACF92DF92F6
:1016C000EF92FF92CF93DF936C01990FEE08FF0822
:1016D000F7FE23C06DE280EE94E00E944907EC0122
:1016E00044275527BA014C195D096E097F092AE084
:1016F00080EE94E00E94DC0AC80FD91F69E372E013
:1017000080EE94E00E94CD0A8C0F9D1FDF91CF9157
:10171000FF90EF90DF90CF9008952AE0B701A601E7
:1017200080EE94E00E94DC0AEC01E8CFCF93DF93D7
:10173000BC0180EE94E00E94CD0AEC0169E372E006
:1017400080EE94E00E94CD0A8C0F9D1FDF91CF9117
:1017500008958F929F92AF92BF92CF92DF92EF92B5
:10176000FF920F931F93CF93DF93EC016A017B01EC
:10177000AB019601CB01B6010E942F176CE372E01A
:10178000811126C046015701E894B7F82FEF3FEFCB
:101790004FE75FE7C501B4010E942F1781110CC00C
:1017A0002FEF3FEF4FE75FE7C501B4010E9415152A
:1017B00060E472E0181664F02FEF3FEF4FE75FE44C
:1017C000C701B6010E946D1618168CF464E472E02D
:1017D000CE01DF91CF911F910F91FF90EF90DF909D
:1017E000CF90BF90AF909F908F900C94CD0A2FEF29
:1017F0003FEF4FE75FECC701B6010E94151587FD6B
:10180000E5CF20E030E0A901C701B6010E9415151F
:1018100010E000E087FF09C06DE2CE010E94490799
:101820008C01F7FAF094F7F8F0942AE037ED43EAE8
:101830005BE3C701B6010E94A9146B017C010E9401
:101840008C154B015C010E94BB159B01AC01C701CB
:10185000B6010E94A8146B017C012AE0B501A40125
:10186000CE010E94DC0A080F191F6EE2CE010E9411
:101870004907080F191F20E030E040E251E4C7019A
:10188000B6010E9472164B015C010E948C156B011F
:10189000F12CE12C2AE0B701A601CE010E94DC0A5E
:1018A000080F191FC701B6010E94BB159B01AC01AF
:1018B000C501B4010E94A81420E030E040E251E4E8
:1018C0000E9472160E948C15AB0170E060E02AE065
:1018D000CE010E94DC0A800F911FDF91CF911F91F2
:1018E0000F91FF90EF90DF90CF90BF90AF909F90BF
:1018F0008F9008950C94CD0A85ED8093BC00809163
:10190000880490918904A0918A04B0918B04079671
:10191000A11DB11D23E0B695A795979587952A95AA
:10192000D1F72091BC0024FD03C0109286040895D5
:10193000409188045091890460918A0470918B04CD
:10194000452B462B472B69F30097A105B10541F0C4
:101950002AE22A95F1F700C00197A109B109E1CF68
:10196000809187040C94CA081F920F920FB60F92B1
:1019700011242F933F938F939F93AF93BF938091A5
:10198000BC049091BD04A091BE04B091BF043091FD
:10199000B70423E0230F2D3758F50196A11DB11D83
:1019A0002093B7048093BC049093BD04A093BE041D
:1019B000B093BF048091B8049091B904A091BA0487
:1019C000B091BB040196A11DB11D8093B804909302
:1019D000B904A093BA04B093BB04BF91AF919F9197
:1019E0008F913F912F910F900FBE0F901F901895E0
:1019F00026E8230F0296A11DB11DD2CF1F920F9290
:101A00000FB60F9211240BB60F922F933F934F9363
:101A10005F936F937F938F939F93AF93BF93EF9356
:101A2000FF938091D4049091D504A091D604B091F5
:101A3000D704892B8A2B8B2BE1F19091C304E09181
:101A4000C404F091C5048081892780838091D404E7
:101A50009091D504A091D604B091D7041816190618
:101A60001A061B069CF48091D4049091D504A09191
:101A7000D604B091D7040197A109B1098093D40489
:101A80009093D504A093D604B093D704FF91EF911F
:101A9000BF91AF919F918F917F916F915F914F9186
:101AA0003F912F910F900BBE0F900FBE0F901F9084
:101AB0001895809100020E940407E8CF1F920F92B0
:101AC0000FB60F9211240BB60F922F933F934F93A3
:101AD0005F936F937F938F939F93AF93BF93EF9396
:101AE000FF9380EE94E00E94C407FF91EF91BF91B5
:101AF000AF919F918F917F916F915F914F913F91A6
:101B00002F910F900BBE0F900FBE0F901F90189546
:101B10001F920F920FB60F9211240BB60F922F93B4
:101B20008F939F93EF93FF93E091F004F091F10472
:101B30008081E091F604F091F70482FD1DC0908150
:101B40008091F9048F5F8F732091FA04821741F01E
:101B5000E091F904F0E0E052FB4F958F8093F90497
:101B6000FF91EF919F918F912F910F900BBE0F904E
:101B70000FBE0F901F9018958081F2CF1F920F9289
:101B80000FB60F9211240BB60F922F933F934F93E2
:101B90005F936F937F938F939F93AF93BF93EF93D5
:101BA000FF938091B900887F803609F44DC008F01A
:101BB00040C0883209F4A9C028F5803109F49DC0DD
:101BC000C8F4882309F4FBC0883009F496C0FF915B
:101BD000EF91BF91AF919F918F917F916F915F91A5
:101BE0004F913F912F910F900BBE0F900FBE0F9012
:101BF0001F901895883109F488C0803241F780938E
:101C0000840414C0803409F49DC040F48033B9F3D7
:101C10008833E9F68093840485ECB0C0803509F4FC
:101C200085C0883509F496C0883489F60E947C0CFA
:101C3000CECF883909F48CC038F5883729F050F4B4
:101C4000883611F0803719F683E08093860410926D
:101C50005F0457C0883809F47BC0803919F0803898
:101C600009F0B5CF80915F04803208F071C0E09137
:101C70005F0481E08E0F80935F048091BB00F0E0F1
:101C8000E15CFB4F80833DC0803B39F0E0F4803A5B
:101C900009F479C0883A09F09ACF84E080938604E9
:101CA00010923E0410923D04E091B004F091B10412
:101CB000199580913D0481110FC081E080933D040E
:101CC00010921D0409C0803C09F4A6CF883C09F499
:101CD000A3CF883B09F07BCFE0913E0481E08E0FDB
:101CE00080933E04F0E0E35EFB4F80818093BB0075
:101CF00090913E0480913D0429C0809161048093BD
:101D0000BB0085EC8093BC0062CF909183048091EE
:101D10008204981758F5E091830481E08E0F809338
:101D20008304F0E0EE59FB4F8081E9CFE09183041A
:101D300081E08E0F809383048091BB00F0E0EE5928
:101D4000FB4F808390918304809182049817C8F29E
:101D500085E8D8CFE091830481E08E0F80938304DF
:101D60008091BB00F0E0EE59FB4F808380918504A9
:101D700081115CCF81E08093600484EA8093BC0091
:101D80001092860424CF85EC8093BC0010928604C8
:101D900080915F04803230F4E0915F04F0E0E15C18
:101DA000FB4F108260915F0470E0E091AE04F0910F
:101DB000AF048FE394E0199510925F0408CF10925E
:101DC000840434CFE0EEF4E01382128288EE93E0D4
:101DD000A0E0B0E084839583A683B7832DE032E052
:101DE0003183208325EC30E03587248724EC30E0F4
:101DF0003787268720EC30E0318B208B21EC30E0D8
:101E0000338B228B22EC30E0358B248B26EC30E0B8
:101E1000378B268B118E128E138E148EEDE7F5E024
:101E20001382128284839583A683B7838FE192E025
:101E300091838083ECE9F5E01382128281E392E0E2
:101E40009183808387E2848380E1818782E0828737
:101E50001386A9E8B5E088E015968C9315978BE07A
:101E600016968C931697EDE1F3E0E4911796EC93B8
:101E70001797E7EDF2E0E4911896EC93189740E895
:101E80005EE360E070E01D964D935D936D937C93EF
:101E900050970895CF93DF9300D000D000D01F92C9
:101EA0001F92CDB7DEB7789484B5826084BD84B5C7
:101EB000816084BD85B5826085BD85B5816085BD45
:101EC00080916E00816080936E00109281008091FD
:101ED0008100826080938100809181008160809385
:101EE0008100809180008160809380008091B100AA
:101EF00084608093B1008091B00081608093B000D5
:101F00008091910082608093910080919100816026
:101F100080939100809190008160809390008091E7
:101F2000A10082608093A1008091A10081608093D4
:101F3000A1008091A00081608093A0008091210188
:101F40008260809321018091210181608093210131
:101F50008091200181608093200180917A008460CB
:101F600080937A0080917A00826080937A008091D9
:101F70007A00816080937A0080917A0080688093F3
:101F80007A001092C1000E94E20188E492E00E946F
:101F9000960B1092B5041092B4041092B3041092F0
:101FA000B2040E94AC0882E097E09093B104809361
:101FB000B00483E097E09093AF048093AE04109256
:101FC000A1058091A605823018F098E09093A105B4
:101FD0008093A40562E370E080E090E00E94C10578
:101FE0006091A7058CE995E00E94710968EE73E0A5
:101FF00080E090E00E94C10560E38CE995E00E94DA
:102000005B0A8BE496E40197F1F760E38CE995E0D5
:102010000E945B0A8BE496E40197F1F760E38CE998
:1020200095E00E945B0A83E592E00197F1F760E298
:102030008CE995E00E945B0A6091A105606240E036
:102040008CE995E00E94740A84E08093A20540E048
:102050006CE08CE995E00E94740A0E94BC0A82E060
:102060008093A30540E066E08CE995E00E94740A45
:1020700040E062E08CE995E00E94740A8BE39FE106
:102080000197F1F788E08093A70560E08CE995E07F
:102090000E94710960E080E00E948B0A65E872E0AE
:1020A0008CE995E00E947A0C62E080918E050E9496
:1020B000D7022FB7F8948091BC049091BD04A091F1
:1020C000BE04B091BF042FBF805D9740A109B10944
:1020D0008093920590939305A0939405B0939505F2
:1020E00087E380939B0561E089E00E94D70261E06D
:1020F0008AE00E94D70261E08BE00E94D70261E093
:102100008DE00E94D70260E08AE00E94A90260E0B0
:102110008BE00E94A90261E089E00E94D70260E0A2
:1021200089E00E94A90260E08DE00E94A90261E0BE
:1021300087E00E94D70261E086E00E94D70261E05A
:1021400087E00E94A9020E94E201FDE52F2EF2E045
:102150003F2E0E94F305882341F080918F058C303B
:1021600009F46AC048F48B3031F1C12CD12C50EC09
:10217000E52E5FE7F52E4BC085518230B0F7809198
:102180008B058983682F70E0762F662766277F7717
:1021900080918C05682B90E080E00E94BB152DECAF
:1021A0003CEC4CEC5DE30E9472166B017C01998162
:1021B00097FF2DC063C060918B0570E090E080E0D8
:1021C0000E94BB156B017C0190918C05998397FF50
:1021D0000AC0A701960160E070E080E89FEB0E94D2
:1021E000A8146B017C01E981EF706E2F70E090E024
:1021F00080E00E94BD152DEC3CEC4CEC5DE30E94B0
:102200007216A70196010E94A9146B017C010E941D
:10221000F305882351F080918F058B3030F08D309D
:1022200090F18551823008F4E4C1812C912C40EC6E
:10223000A42E4FE7B42E45C0F0918B05F9836F2F84
:1022400070E090E080E00E94BB156B017C01609122
:102250008C056F7070E090E080E00E94BD152DEC61
:102260003CEC4CEC5DE30E947216A70196010E94C3
:10227000A9146B017C01298127FFC9CFF7FAF094DB
:10228000F7F8F094C4CF60918A0570E090E080E0A8
:102290000E94BD152DEC3CEC4CEC5DE30E947216E7
:1022A0004B015C016091890570E090E080E00E9444
:1022B000BD159B01AC01C501B4010E94A9144B01DD
:1022C0005C0186E30E9485058C018091B604811132
:1022D00015C187E30E948505BC01990F880B990BF6
:1022E0000E94BD1520E030EC4FE754E40E941A151F
:1022F00020E030E040EA50E40E9472169B01AC01FD
:1023000060E070E088E492E40E941A1520E030E07A
:1023100040E251E40E94A81420E030E040E251E4A1
:102320000E941A152B013C0120E030E040EC5FEBED
:102330000E94DF1620E030E040E251E40E94721675
:1023400069837A838B839C832AE939E949E95FEBC6
:10235000C301B2010E94DF1620E030E040E251E408
:102360000E9472166D837E838F83988726E636E6F9
:1023700046EE5FEBC301B2010E94DF1620E030E0C1
:1023800040E251E40E9472162B013C01EBE5F2E0C1
:102390008491ECE1F3E0F491FA87E6EDF2E0F49158
:1023A000F987FF2309F437C181110E944202298570
:1023B000E22FF0E0EE0FFF1FE656FD4FA591B4911E
:1023C0008C919A859823998791E080E0E985E111C5
:1023D00001C090E09A878B8766E972E080EE94E016
:1023E0000E947A0C49815A816B817C8180EE94E055
:1023F0000E94A90B6FE972E080EE94E00E947A0CD3
:102400004D815E816F81788580EE94E00E94A90BFA
:102410006EEA72E080EE94E00E947A0CB301A201B1
:1024200080EE94E00E94A90B6BEB72E080EE94E0EA
:102430000E947A0C8A859B85019709F0EFC089E894
:1024400093E00E94960B20E030E048EC53E4698171
:102450007A818B819C810E946D161816B4F020E061
:1024600030E048EC53E46D817E818F8198850E9435
:102470006D16181654F020E030E048EC53E4C30128
:10248000B2010E946D1618163CF481E08093B604E8
:102490008DEC92E00E94960BA7019601C701B60150
:1024A0000E942F17811109C0A5019401C501B40133
:1024B0000E942F17882309F4B4C089EF92E00E948C
:1024C000960B60E080E00E948B0A62E273E08CE988
:1024D00095E00E947A0C013223E012070CF42DC221
:1024E00061E08DE00E94A90284E893E00E94960BCF
:1024F00060ED77E080E090E00E94C1058091B60435
:10250000882309F46DC060E087E00E94A90280ED95
:1025100097E00E940803E3E0F0E0FA83E98384E1B6
:1025200090E00E94080364E670E080E090E00E9482
:10253000C10586E00E94040764E670E080E090E058
:102540000E94C10589819A8101979A838983892B89
:1025500031F785E993E00E94960B0E94BC0A60E087
:1025600080E00E948B0A6EEC73E08CE995E00E949B
:102570007A0C61E080E00E948B0A6AEE73E08CE9DD
:1025800095E00E947A0CE4E1F0E0FA83E98340E010
:1025900068E18CE995E00E94740A6CE271E080E0E9
:1025A00090E00E94C10589819A8101979A8389836D
:1025B000892B69F70E94BC0A60E080E00E948B0AC8
:1025C0006EEC73E08CE995E00E947A0C61E080E0AB
:1025D0000E948B0A6AEE73E08CE995E00E947A0C07
:1025E00068EE73E080E090E00E94C1050E9453080D
:1025F000B0CD6091890570918A0576276727762787
:1026000090E080E00E94BB152DEC3CEC4CEC5DE3CF
:102610000E94721654CE1B861A86DECE81E993E0A4
:1026200010CF60E080E00E948B0A64E373E08CE9E5
:1026300095E00E947A0CB701A6018CE995E00E9412
:10264000A90B68E373E08CE995E00E947A0CB50170
:10265000A4018CE995E00E94A90B6EE373E08CE97C
:1026600095E00E947A0C61E080E00E948B0A61E4B0
:1026700073E08CE995E00E947A0CB8018CE995E052
:102680000E94280B6FE273E08CE995E00E947A0CBF
:1026900067E473E080EE94E00E947A0CB701A60133
:1026A00080EE94E00E94A90B65E573E080EE94E073
:1026B0000E947A0CB501A40180EE94E00E94A90B5F
:1026C00064E673E080EE94E00E947A0CC8010E94F8
:1026D0005E0B20E030E048EC51E4C701B6010E94F7
:1026E000151587FD2FC020E030E048EC51E4C7010C
:1026F000B6010E946D1687FD0AC020E030E040EF71
:1027000051E4C701B6010E94151587FD4FC020E0B6
:1027100030E040EF51E4C701B6010E946D1687FD1D
:102720000DC020E030E04CE052E4C701B6010E9449
:10273000151526E9E22EF12C87FD06C0EE24EA9459
:10274000F12C02C0F12CE12C63E773E080EE94E001
:102750000E947A0CC7010E945E0B61E0E114F10453
:1027600009F460E08AE00E94A90260E08BE00E9428
:10277000A90261E089E00E94D702E114F104D1F4DA
:1027800060E089E00E94A90261E089E00E948B0A72
:102790006FE773E08CE995E00E947A0CB7018CE951
:1027A00095E00E94280B61E373E091CE94E6E92E58
:1027B000F12CCACF9FEFE916F10411F461E0E1CFEB
:1027C000F1018491EFEFE80FE23108F0B0C0F0E0E2
:1027D0008827E251FC4E8F4F0C94AA180014051460
:1027E0000A1414141E1497142814301438144214A4
:1027F0004C14561465146F149714791483148D14A3
:1028000084B5806884BDE7BCBFCF84B5806284BDD9
:10281000E8BCBACF80918000806880938000F092FD
:102820008900E0928800B0CF809180008062809320
:102830008000F0928B00E0928A00A6CF8091800009
:10284000886080938000F0928D00E0928C009CCF95
:102850008091B00080688093B000E092B30094CF84
:102860008091B00080628093B000E092B4008CCF81
:1028700080919000806880939000F0929900E0929F
:10288000980082CF80919000806280939000F092B7
:102890009B00E0929A0078CF8091900088608093AE
:1028A0009000F0929D00E0929C006ECF8091A0007D
:1028B00080688093A0008091A0008F7B8093A0000F
:1028C000F092A900E092A8005FCF8091A000806202
:1028D0008093A000F092AB00E092AA0055CF8091C7
:1028E000A00088608093A000F092AD00E092AC0060
:1028F0004BCF80912001806880932001F0922901C4
:10290000E092280141CF80912001806280932001D4
:10291000F0922B01E0922A0137CF8091200188604C
:1029200080932001F0922D01E0922C012DCFF0E850
:10293000EF16F1040CF042CF23CF083512400CF013
:10294000D7CD60E08DE00E94A9028CE893E0CECD67
:102950005058BB27AA270E94C0140C9433160E941B
:10296000251638F00E942C1620F039F49F3F19F4F8
:1029700026F40C9422160EF4E095E7FB0C941C163A
:10298000E92F0E94441658F3BA17620773078407A9
:10299000950720F079F4A6F50C9466160EF4E095F0
:1029A0000B2EBA2FA02D0B01B90190010C01CA0109
:1029B000A0011124FF27591B99F0593F50F4503EB4
:1029C00068F11A16F040A22F232F342F4427585FA6
:1029D000F3CF469537952795A795F0405395C9F7BE
:1029E0007EF41F16BA0B620B730B840BBAF0915076
:1029F000A1F0FF0FBB1F661F771F881FC2F70EC015
:102A0000BA0F621F731F841F48F4879577956795E7
:102A1000B795F7959E3F08F0B0CF9395880F08F0D3
:102A20009927EE0F9795879508950E94F81508F459
:102A300081E008950E942E150C9433160E942C16E6
:102A400058F00E94251640F029F45F3F29F00C94BD
:102A50001C1651110C9467160C9422160E944416F1
:102A600068F39923B1F3552391F3951B550BBB27BD
:102A7000AA2762177307840738F09F5F5F4F220F02
:102A8000331F441FAA1FA9F335D00E2E3AF0E0E8F9
:102A900032D091505040E695001CCAF72BD0FE2F43
:102AA00029D0660F771F881FBB1F261737074807D7
:102AB000AB07B0E809F0BB0B802DBF01FF2793588F
:102AC0005F4F3AF09E3F510578F00C941C160C9421
:102AD00067165F3FE4F3983ED4F386957795679544
:102AE000B795F7959F5FC9F7880F911D96958795C4
:102AF00097F90895E1E0660F771F881FBB1F6217E3
:102B000073078407BA0720F0621B730B840BBA0BA0
:102B1000EE1F88F7E09508950E944C1688F09F57A5
:102B200098F0B92F9927B751B0F0E1F0660F771FF1
:102B3000881F991F1AF0BA95C9F714C0B13091F0E7
:102B40000E946616B1E008950C946616672F782FE0
:102B50008827B85F39F0B93FCCF3869577956795AC
:102B6000B395D9F73EF490958095709561957F4F18
:102B70008F4F9F4F0895E89409C097FB3EF49095BE
:102B80008095709561957F4F8F4F9F4F9923A9F046
:102B9000F92F96E9BB279395F695879577956795D5
:102BA000B795F111F8CFFAF4BB0F11F460FF1BC019
:102BB0006F5F7F4F8F4F9F4F16C0882311F096E9AC
:102BC00011C0772321F09EE8872F762F05C066235A
:102BD00071F096E8862F70E060E02AF09A95660F13
:102BE000771F881FDAF7880F9695879597F90895CC
:102BF000990F0008550FAA0BE0E8FEEF161617060E
:102C0000E807F907C0F012161306E407F50798F075
:102C1000621B730B840B950B39F40A2661F0232B8E
:102C2000242B252B21F408950A2609F4A140A6950A
:102C30008FEF811D811D089597F99F6780E870E0EF
:102C400060E008959FEF80EC089500240A94161622
:102C5000170618060906089500240A94121613068A
:102C6000140605060895092E0394000C11F4882318
:102C700052F0BB0F40F4BF2B11F460FF04C06F5F34
:102C80007F4F8F4F9F4F089557FD9058440F551F0A
:102C900059F05F3F71F04795880F97FB991F61F0DE
:102CA0009F3F79F087950895121613061406551F55
:102CB000F2CF4695F1DF08C0161617061806991FC1
:102CC000F1CF86957105610508940895E894BB27B6
:102CD00066277727CB0197F908950E94F81508F425
:102CE0008FEF08950E9485160C9433160E942516C6
:102CF00038F00E942C1620F0952311F00C941C162D
:102D00000C94221611240C9467160E94441670F33A
:102D1000959FC1F3950F50E0551F629FF001729F80
:102D2000BB27F00DB11D639FAA27F00DB11DAA1F8F
:102D3000649F6627B00DA11D661F829F2227B00DDC
:102D4000A11D621F739FB00DA11D621F839FA00D67
:102D5000611D221F749F3327A00D611D231F849FB7
:102D6000600D211D822F762F6A2F11249F5750400E
:102D70009AF0F1F088234AF0EE0FFF1FBB1F661F89
:102D8000771F881F91505040A9F79E3F510580F052
:102D90000C941C160C9467165F3FE4F3983ED4F332
:102DA000869577956795B795F795E7959F5FC1F7F6
:102DB000FE2B880F911D9695879597F90895FA0136
:102DC000EE0FFF1F309621053105A1F16115710548
:102DD00061F48038BFE39B0749F16894903881051E
:102DE00061F08038BFEF9B0741F099234AF5FF3F20
:102DF000E1053105210519F1E8940894E795D90119
:102E0000AA2329F4AB2FBE2FF85FD0F310C0FF5FC9
:102E100070F4A695E0F7F73950F019F0FF3A38F45E
:102E20009F779F930DD00F9007FC9058089546F020
:102E30000C94221660E070E080E89FE308954FE76D
:102E40009F775F934F933F932F930E94DF172F91AC
:102E50003F914F915F910E9472160C943C170E9413
:102E6000F815880B990B089529F416F00C941C168C
:102E70000C9466160C9422160E944C16A8F39638F1
:102E8000A0F707F80F92E8942BE33AEA48EB5FE7E4
:102E90000E9488160F920F920F924DB75EB70F9255
:102EA0000E942718E4EEF0E00E946E174F915F91A8
:102EB000EF91FF91E595EE1FFF1F49F0FE57E06887
:102EC0004427EE0F441FFA95E1F74195550B0E94F8
:102ED000A1170F9007FE0C9495170895DF93CF93D9
:102EE0001F930F93FF92EF92DF927B018C01689406
:102EF00006C0DA2EEF010E948516FE01E894A59126
:102F00002591359145915591A6F3EF010E94C0148A
:102F1000FE019701A801DA9469F7DF90EF90FF9026
:102F20000F911F91CF91DF9108959B01AC0160E05B
:102F300070E080E89FE30C941A150C941C160C9416
:102F40005B180E944C16D8F39923C9F3940F511DB6
:102F5000A3F39150504094F059F0882332F0660F5B
:102F6000771F881F91505040C1F79E3F51052CF7A5
:102F7000880F911D9695879597F908955F3FACF05E
:102F8000983E9CF0BB27869577956795B79508F492
:102F9000B1609395C1F7BB0F58F711F460FFE8CF0C
:102FA0006F5F7F4F8F4F9F4FE3CF0C94671616F0E4
:102FB0000C945B180C94221668940C941C160E94B6
:102FC0004C16A8F39923C1F3AEF3DF93CF931F936D
:102FD0000F93FF92C92FDD2788232AF02197660FD0
:102FE000771F881FDAF720E030E040E85FEB9FE3CF
:102FF000883920F0803E38F021968F770E94A914FE
:10300000ECE0F1E004C00E94A914E9E3F1E00E94C1
:103010006E178B01BE01EC01FB2E6F577109759580
:10302000771F880B990B0E94BD1528E132E741E319
:103030005FE30E948516AF2D9801AE01FF900F91BE
:103040001F91CF91DF910E94C0140C943316FA01A6
:10305000DC01AA0FBB1F9B01AC01BF5728F422273C
:1030600033274427507820C0B75190F4AB2F002469
:10307000469537952795011CA395D2F3002071F052
:10308000220F331F441FB395DAF30ED00C94A8140B
:1030900061307105A0E88A07B94630F49B01AC01A4
:1030A0006627772788279078309621F02083318310
:1030B0004283538308959F3F31F0915020F48795C8
:1030C00077956795B795880F911D9695879597F990
:1030D0000895A1E21A2EAA1BBB1BFD010DC0AA1F59
:1030E000BB1FEE1FFF1FA217B307E407F50720F071
:1030F000A21BB30BE40BF50B661F771F881F991FEC
:103100001A9469F760957095809590959B01AC0134
:10311000BD01CF010895052E97FB1EF400940E9477
:10312000A21857FD07D00E94691807FC03D04EF47F
:103130000C94A21850954095309521953F4F4F4FD4
:103140005F4F089590958095709561957F4F8F4F53
:103150009F4F0895EE0FFF1F881F8BBF0790F691BA
:10316000E02D1994F894FFCFFF00004000140054A4
:103170000000000000E60750077D073308AE078C0B
:1031800007A0070000000042091509580AEB080EC5
:1031900009FB08EC0800000000C70A5007580A8421
:1031A000080D0A006E616E00696E66006F7666003B
:1031B00054656D70657261747572652026204C448B
:1031C000522D42617365642046616E20616E6420F9
:1031D0004C6967687420436F6E74726F6C6C6572B3
:1031E00020496E697469616C697A65640046616E34
:1031F0002026204C69676874204374726C00434F2A
:103200002050504D3A2000207C20536D6F6B65207C
:1032100050504D3A2000207C204761732050504D83
:103220003A2000207C2052656C61792053746174CF
:1032300075733A2000E29AA0EFB88F20476173209F
:1032400044657465637465642120416C61726D200E
:1032500041637469766174656420E29AA0EFB88F67
:10326000004572726F723A204661696C6564207421
:103270006F20726561642066726F6D20444854311E
:10328000312073656E736F72210054656D70204537
:1032900072726F722120202020202000543A2000DA
:1032A0004320483A20002520004C44523A20005444
:1032B000656D70657261747572653A200020432CEB
:1032C0002048756D69646974793A2000252C204C7A
:1032D00044522056616C75653A200046616E205359
:1032E000706565643A200046616E3A004C45443A88
:1032F000204F4E004C45443A204F464600F09F9ADE
:10330000A82053797374656D204F4646207C204277
:10331000757A7A6572204F4E20284D616E75616C0A
:1033200020526573657420526571756972656429F0
:1033300020F09F9AA800476173204C65616B61671C
:103340006520446574656374656420212020202015
:10335000200053797374656D204F4646202020204D
:043360002020000029
:020000040003F7
:10E000000D9489F10D94B2F10D94B2F10D94B2F129
:10E010000D94B2F10D94B2F10D94B2F10D94B2F1F0
:10E020000D94B2F10D94B2F10D94B2F10D94B2F1E0
:10E030000D94B2F10D94B2F10D94B2F10D94B2F1D0
:10E040000D94B2F10D94B2F10D94B2F10D94B2F1C0
:10E050000D94B2F10D94B2F10D94B2F10D94B2F1B0
:10E060000D94B2F10D94B2F10D94B2F10D94B2F1A0
:10E070000D94B2F10D94B2F10D94B2F10D94B2F190
:10E080000D94B2F10D94B2F10D94B2F10D94B2F180
:10E090000D94B2F10D94B2F10D94B2F10D94B2F170
:10E0A0000D94B2F10D94B2F10D94B2F10D94B2F160
:10E0B0000D94B2F10D94B2F10D94B2F10D94B2F150
:10E0C0000D94B2F10D94B2F10D94B2F10D94B2F140
:10E0D0000D94B2F10D94B2F10D94B2F10D94B2F130
:10E0E0000D94B2F141546D656761323536300041AF
:10E0F000726475696E6F206578706C6F72657220DE
:10E1000073746B3530305632206279204D4C530099
:10E11000426F6F746C6F616465723E004875683F52
:10E1200000436F6D70696C6564206F6E203D200048
:10E130004350552054797065202020203D20005FF9
:10E140005F4156525F415243485F5F3D2000415658
:10E1500052204C696243205665723D20004743437C
:10E160002056657273696F6E203D20004350552024
:10E1700049442020202020203D20004C6F7720663D
:10E18000757365202020203D20004869676820665F
:10E190007573652020203D200045787420667573D6
:10E1A00065202020203D20004C6F636B2066757336
:10E1B000652020203D20004D617220203720323024
:10E1C000313300312E362E3800342E332E350056A2
:10E1D00023202020414444522020206F7020636F70
:10E1E00064652020202020696E73747275637469E1
:10E1F0006F6E2061646472202020496E74657272B3
:10E20000757074006E6F20766563746F7200726A49
:10E210006D702020006A6D70200057686174207056
:10E220006F72743A00506F7274206E6F7420737541
:10E2300070706F72746564004D7573742062652030
:10E2400061206C6574746572002000577269747483
:10E25000696E672045450052656164696E672045B7
:10E26000450045452065727220636E743D00504F35
:10E27000525400303D5A65726F2061646472003FF1
:10E280003D43505520737461747300403D454550C3
:10E29000524F4D207465737400423D426C696E6B41
:10E2A000204C454400453D44756D70204545505215
:10E2B0004F4D00463D44756D7020464C415348001B
:10E2C000483D48656C70004C3D4C69737420492F83
:10E2D0004F20506F72747300513D51756974005234
:10E2E0003D44756D702052414D00563D73686F7707
:10E2F00020696E7465727275707420566563746FF0
:10E30000727300593D506F727420626C696E6B00BD
:10E310002A0011241FBECFEFD1E2DEBFCDBF01E046
:10E320000CBF12E0A0E0B2E0EEE1FDEF03E00BBFB6
:10E3300002C007900D92A030B107D9F712E0A0E01B
:10E34000B2E001C01D92AE30B107E1F70F9460F367
:10E350000D948DFE01E20EBF0FEF0DBF11241FBE05
:10E360000D9460F30D9400F020E030E040ED57E0B4
:10E3700005C0FA013197F1F72F5F3F4F2817390792
:10E38000C0F308959C01260F311DC901A0E0B0E043
:10E390002F5F3F4FABBFFC018791882361F08093D3
:10E3A000C6008091C00086FFFCCF8091C0008064D1
:10E3B0008093C000EACF08958DE08093C6008091DD
:10E3C000C00086FFFCCF8091C00080648093C000B5
:10E3D0008AE08093C6008091C00086FFFCCF8091C8
:10E3E000C00080648093C00008950F94C2F10F9420
:10E3F000DCF10895FC019081992359F09093C600B7
:10E400008091C00086FFFCCF8091C0008064809323
:10E41000C0003196992379F70895282F982F929567
:10E420009F70892F805D8A3308F0895F8093C600D2
:10E430008091C00086FFFCCF8091C00080648093F3
:10E44000C000822F8F70982F905D9A3308F0995FEB
:10E450009093C6008091C00086FFFCCF8091C000E1
:10E4600080648093C00008959C01FB01853691056E
:10E470001CF46330710594F0C90164E670E00F94F8
:10E480002EFE605D7F4F6093C6008091C00086FFC6
:10E49000FCCF8091C00080648093C0002B30310598
:10E4A00014F43297B4F0C90164E670E00F942EFEC4
:10E4B0006AE070E00F942EFE605D7F4F6093C600AF
:10E4C0008091C00086FFFCCF8091C0008064809363
:10E4D000C000C9016AE070E00F942EFEC0968093E0
:10E4E000C6008091C00086FFFCCF8091C000806490
:10E4F0008093C00008951F93182F8EE692EE60E07F
:10E500000F94C2F11093C6008091C00086FFFCCF2B
:10E510008091C00080648093C0000F94DCF11F9153
:10E5200008952F923F924F925F926F927F928F92B7
:10E530009F92AF92BF92CF92DF92EF92FF920F9392
:10E540001F93DF93CF93CDB7DEB762970FB6F894E2
:10E55000DEBF0FBECDBF382E622ECA01DB015C01CB
:10E560006D01772420E2222E2E010894411C511CBB
:10E570008BC081E0A81680E0B80681E0C80680E084
:10E58000D80628F0C601AA27BB270F940DF2BB2797
:10E59000AD2D9C2D8B2D0F940DF28A2D0F940DF225
:10E5A0002092C6008091C00086FFFCCF8091C00001
:10E5B00080648093C0009DE29093C6008091C0006B
:10E5C00086FFFCCF8091C00080648093C0002092C1
:10E5D000C6008091C00086FFFCCF8091C00080649F
:10E5E0008093C00019828601750188249924A1E0D6
:10E5F0003A1651F03A1620F0B2E03B1661F409C029
:10E600000BBFF701779007C0C7010F9477FE782EF4
:10E6100002C0F7017080872D0F940DF22092C60082
:10E620008091C00086FFFCCF8091C0008064809301
:10E63000C000872D8052F401EF70F0708F3520F408
:10E64000E40DF51D708204C0E40DF51D8EE280839B
:10E650000894E11CF11C011D111D0894811C911CE2
:10E6600090E18916910409F0C2CF80E190E0A0E02A
:10E67000B0E0A80EB91ECA1EDB1E198AC2010F9493
:10E68000FAF10F94DCF16A94662009F072CF629679
:10E690000FB6F894DEBF0FBECDBFCF91DF911F91B3
:10E6A0000F91FF90EF90DF90CF90BF90AF909F9031
:10E6B0008F907F906F905F904F903F902F90089534
:10E6C0002F923F924F925F926F927F928F929F9282
:10E6D000AF92BF92CF92DF92EF92FF920F931F9370
:10E6E000DF93CF93CDB7DEB7CD53D1400FB6F894BB
:10E6F000DEBF0FBECDBF01E20EBF0FEF0DBF94B75F
:10E70000F894A89514BE80916000886180936000A1
:10E7100010926000789493FF05C0E0910002F091A0
:10E7200001021995279A2F9A8091C00082608093E8
:10E73000C00080E18093C40088E18093C1000000A4
:10E74000EE24FF24870144E0A42EB12CCC24DD2448
:10E7500024C0C5010197F1F70894E11CF11C011DCB
:10E76000111D21E2E2162EE4F20620E0020720E06D
:10E77000120718F031E0C32ED12CC801B70127ECE5
:10E780003BE140E050E00F9441FE611571058105C9
:10E79000910519F485B1805885B98091C00087FD35
:10E7A00003C0C114D104A9F2A6014F5F5F4FC25E3E
:10E7B000DE4F59834883CE51D140C25EDE4F8881FF
:10E7C0009981CE51D140019711F00D9410FEC05D9A
:10E7D000DE4F19821882C053D14060E0C15DDE4F28
:10E7E0001882CF52D14088249924C35DDE4F19820C
:10E7F0001882CD52D140C05EDE4F188219821A8233
:10E800001B82C052D140CE5CDE4F188219821A8220
:10E810001B82C253D140EE24FF2487010BBFF701B6
:10E8200007911691C45CDE4F19830883CC53D14005
:10E830000D940BFEC25EDE4F28813981CE51D1404E
:10E840002130310509F52091C600C25EDE4F1982E4
:10E850001882CE51D14022C02F5F3F4F4F4F5F4FA4
:10E86000213082E138078AE7480780E0580780F0C6
:10E87000C45CDE4FE881F981CC53D140EF5FFF4F9C
:10E8800019F0EE27FF27099420E030E040E050E047
:10E890008091C00087FFE0CF2091C600C35DDE4FAE
:10E8A00048815981CD52D1404F5F5F4FC35DDE4FEC
:10E8B00059834883CD52D140213209F063C64A3092
:10E8C000510508F05FC60894811C911C53E0851621
:10E8D000910409F059C600E010E018C081E280936D
:10E8E000C6008091C00086FFFCCF8091C00080648C
:10E8F0008093C0002F5F3F4F2931310579F70F9486
:10E90000DCF10F5F1F4F0530110519F020E030E0FA
:10E91000E5CF10920A0210920B0210920C02109294
:10E920000D02109206021092070210920802109235
:10E930000902109202021092030210920402109235
:10E9400005028FEE90EE60E00F94F5F180E191EE1C
:10E9500060E00F94C2F18091C00087FFFCCF9091DE
:10E96000C600903608F09F759032B8F09093C600BC
:10E970008091C00086FFFCCF8091C00080648093AE
:10E98000C000A0E2A093C6008091C00086FFFCCF2B
:10E990008091C00080648093C000983409F4D7C18E
:10E9A0009934B8F4923409F459C1933458F490333B
:10E9B00019F1903308F4E3C59F33A1F1903409F0C5
:10E9C000DEC5BDC0953409F470C1963409F0D7C5D1
:10E9D00098C1923509F42BC2933538F49C3409F46C
:10E9E000F5C1913509F0CBC518C2963509F445C279
:10E9F000993509F0C4C567C483E792EE62E00F94CD
:10EA0000F5F110920602109207021092080210927D
:10EA1000090210920A0210920B0210920C0210923C
:10EA20000D0213C18FE792EE62E00F94F5F18FEEC5
:10EA300090EE60E00F94F5F181E291EE60E00F94CA
:10EA4000C2F187EB91EE60E00F94F5F180E391EE77
:10EA500060E00F94C2F184EE90EE60E00F94F5F167
:10EA60008FE391EE60E00F94C2F186E090E061E008
:10EA700070E00F9434F20F94DCF18DE591EE60E0DC
:10EA80000F94C2F189EC91EE60E00F94F5F18EE401
:10EA900091EE60E00F94C2F183EC91EE60E00F9490
:10EAA000F5F18CE691EE60E00F94C2F18EE10F94E7
:10EAB0000DF288E90F940DF281E00F940DF20F949E
:10EAC000DCF18BE791EE60E00F94C2F119E0E0E039
:10EAD000F0E010935700E4918E2F0F940DF20F94F5
:10EAE000DCF18AE891EE60E00F94C2F1E3E0F0E03F
:10EAF00010935700E4918E2F0F940DF20F94DCF1D8
:10EB000089E991EE60E00F94C2F1E2E0F0E0109349
:10EB10005700E4918E2F0F940DF20F94DCF188EAE8
:10EB200091EE60E00F94C2F1E1E0F0E01093570045
:10EB30001491812F0F940DF20F94DCF107CF8BE825
:10EB400092EE62E00F94F5F18BE492EE60E00F94A8
:10EB5000F5F10F94DCF100E010E019C0C8016F2D51
:10EB60000F947FFEFF2031F489E492EE60E00F9471
:10EB7000C2F10BC0F092C6008091C00086FFFCCFAE
:10EB80008091C00080648093C0000F5F1F4FC80158
:10EB900081519F41A0E0B0E0ABBFFC01F790BAE229
:10EBA000FB1621F0E2E000301E07C1F60F94DCF105
:10EBB0000F94DCF187E592EE60E00F94F5F10F948D
:10EBC000DCF1CC24DD2400E010E01EC0C8010F946D
:10EBD00077FEF82E882331F489E492EE60E00F94FA
:10EBE000C2F10BC08093C6008091C00086FFFCCFAD
:10EBF0008091C00080648093C000FE1419F00894D6
:10EC0000C11CD11C0F5F1F4FC80181519F41A0E063
:10EC1000B0E0ABBFFC01E790FAE2EF1621F022E092
:10EC20000030120799F60F94DCF10F94DCF182E6C4
:10EC300092EE60E00F94C2F1C60161E070E00F94C3
:10EC400034F20F94DCF10F94DCF110920202109276
:10EC50000302109204021092050278CE89E992EE26
:10EC600062E00F94F5F1279A2F9A16C02F9880E052
:10EC700090E0E0EDF7E03197F1F7019684369105E9
:10EC8000C1F72F9A80E090E0E0EDF7E03197F1F7DF
:10EC9000019684369105C1F78091C00087FFE6CFC9
:10ECA0008091C00087FFFCCF64C485EA92EE62E0E9
:10ECB0000F94F5F140910202509103026091040219
:10ECC0007091050281E020E10F9491F2809102029F
:10ECD00090910302A0910402B091050280509F4FD1
:10ECE000AF4FBF4F8093020290930302A0930402A0
:10ECF000B093050280509041A040B04008F426CE69
:10ED0000A4CF83EB92EE62E00F94F5F140910602FE
:10ED100050910702609108027091090280E020E1A1
:10ED20000F9491F28091060290910702A09108023F
:10ED3000B091090280509F4FAF4FBF4F80930602A2
:10ED400090930702A0930802B0930902FFCD80ECD4
:10ED500092EE62E00F94F5F183E792EE60E00F949B
:10ED6000F5F18FE792EE60E00F94F5F18BE892EE0B
:10ED700060E00F94F5F189E992EE60E00F94F5F10F
:10ED800085EA92EE60E00F94F5F183EB92EE60E09D
:10ED90000F94F5F180EC92EE60E00F94F5F187ECC2
:10EDA00092EE60E00F94F5F188ED92EE60E00F9442
:10EDB000F5F18FED92EE60E00F94F5F18AEE92EEB0
:10EDC00060E00F94F5F183E093EEBDCD87EC92EE19
:10EDD00062E00F94F5F181E40F947BF282E40F94EA
:10EDE0007BF283E40F947BF284E40F947BF285E45E
:10EDF0000F947BF286E40F947BF287E40F947BF20E
:10EE000088E40F947BF28AE40F947BF28BE40F94F6
:10EE10007BF28CE40F947BF299CD88ED92EE62E068
:10EE20000F94F5F1772473948824992409C48FED05
:10EE300092EE62E00F94F5F140910A0250910B02BC
:10EE400060910C0270910D0282E020E10F9491F22A
:10EE500080910A0290910B02A0910C02B0910D02D8
:10EE600080509F4FAF4FBF4F80930A0290930B0289
:10EE7000A0930C02B0930D0269CD8AEE92EE62E08F
:10EE80000F94F5F184EE90EE60E00F94F5F18FECC5
:10EE900091EE60E00F94F5F1662477244301CC5D98
:10EEA000DE4F19821882C452D140D401C301B695F5
:10EEB000A79597958795CA5DDE4F88839983AA8326
:10EEC000BB83C652D140CC5DDE4FA881B981C4520C
:10EED000D1401196CC5DDE4FB983A883C452D14096
:10EEE000CD0162E070E00F9434F2B0E2B093C6005E
:10EEF0008091C00086FFFCCF8091C0008064809329
:10EF0000C000EDE2E093C6008091C00086FFFCCF18
:10EF10008091C00080648093C000F0E2F093C6004E
:10EF20008091C00086FFFCCF8091C00080648093F8
:10EF3000C000CA5DDE4FE880F9800A811B81C6529D
:10EF4000D140BB27A12F902F8F2D0F940DF2CA5DBA
:10EF5000DE4F8881C652D1400F940DF2B0E2FB2EF5
:10EF6000F092C6008091C00086FFFCCF8091C00067
:10EF700080648093C0000DE30093C6008091C000C0
:10EF800086FFFCCF8091C00080648093C00010E2B7
:10EF90001093C6008091C00086FFFCCF8091C00016
:10EFA00080648093C0008BBEF3012791C65DDE4F65
:10EFB0002883CA52D140A22EBB24CC24DD2408943D
:10EFC000611C711C811C911C8BBEF3018791282E42
:10EFD0003324442455240894611C711C811C911C09
:10EFE0008BBEF3013791C55DDE4F3883CB52D140E4
:10EFF0000894611C711C811C911C8BBEF30147910C
:10F00000C45DDE4F4883CC52D140ADEFEA2EAFEF66
:10F01000FA2EAFEF0A2FAFEF1A2F6E0C7F1C801E57
:10F02000911E142D032DF22CEE24EA0CFB1C0C1D5A
:10F030001D1D0F940DF220E22093C6008091C000A8
:10F0400086FFFCCF8091C00080648093C000C65DC5
:10F05000DE4F8881CA52D1400F940DF230E23093D6
:10F06000C6008091C00086FFFCCF8091C000806404
:10F070008093C000C45DDE4F8881CC52D1400F9494
:10F080000DF240E24093C6008091C00086FFFCCFA5
:10F090008091C00080648093C000C55DDE4F888190
:10F0A000CB52D1400F940DF250E25093C6008091A4
:10F0B000C00086FFFCCF8091C00080648093C000B8
:10F0C0008FEFE8168FEFF80680E0080780E018075A
:10F0D00031F484E092EE60E00F94C2F1DFC0D80119
:10F0E000C7018070907CA070B0708050904CA040A0
:10F0F000B040D1F52FEF3FE340E050E0E222F322B1
:10F1000004231523CA5DDE4FA880B980CA80DB8046
:10F11000C652D140AE0CBF1CC01ED11EAA0CBB1CD7
:10F12000CC1CDD1C8EE092EE60E00F94C2F1BB2798
:10F13000A12F902F8F2D0F940DF28E2D0F940DF285
:10F1400030E23093C6008091C00086FFFCCF8091F2
:10F15000C00080648093C0004EE34093C60080915D
:10F16000C00086FFFCCF87C08EE09EEFA0E0B0E03D
:10F17000E822F9220A231B239CE0E91694E9F90608
:10F1800090E0090790E0190709F088C0C45DDE4FE0
:10F19000A881CC52D140EA2EFF2400E010E0102FCD
:10F1A0000F2DFE2CEE24C55DDE4FB881CB52D14031
:10F1B000EB0EF11C011D111DD601C501817090706F
:10F1C000A070B070DC0199278827E80EF91E0A1F8D
:10F1D0001B1F20EF30E040E050E0A222B322C42207
:10F1E000D52241E1AA0CBB1CCC1CDD1C4A95D1F7F1
:10F1F000EA0CFB1C0C1D1D1D81E090E0A0E0B0E0BE
:10F20000282239224A225B2235E1220C331C441C7D
:10F21000551C3A95D1F7E20CF31C041D151D57013E
:10F220006801AA0CBB1CCC1CDD1C85E192EE60E0E1
:10F230000F94C2F1C801AA27BB270F940DF2BB2778
:10F24000A12F902F8F2D0F940DF28E2D0F940DF274
:10F2500090E29093C6008091C00086FFFCCF809121
:10F26000C00080648093C000AEE3A093C60080918C
:10F27000C00086FFFCCF8091C00080648093C000F6
:10F28000C601AA27BB270F940DF2BB27AD2D9C2DDD
:10F290008B2D0F940DF28A2D0F940DF20F94DCF14B
:10F2A000CC5DDE4FE881F981C452D140F99709F471
:10F2B0004DCBF4E0EF2EF12C012D112D6E0C7F1CA7
:10F2C000801E911EF2CD83E093EE62E00F94F5F183
:10F2D0008AE192EE60E00F94C2F18091C00087FF56
:10F2E000FCCF1091C6001F751093C6008091C0001E
:10F2F00086FFFCCF8091C00080648093C0000F9493
:10F30000DCF1812F81548A3108F036C1163409F4BA
:10F3100095C0173490F4133409F44EC0143430F40B
:10F320001134F1F0123409F01DC130C0143409F465
:10F3300059C0153409F016C16BC01A3409F4C4C0A1
:10F340001B3438F4173409F48FC0183409F00AC19B
:10F35000A1C01B3409F4D2C01C3409F003C1E8C0B9
:10F360008FEF81B90DC082B1809582B980E090E0C5
:10F37000E0EDF7E03197F1F70196883C9105C1F790
:10F380008091C00087FFEFCF12B8EFC08FEF84B934
:10F390000DC085B1809585B980E090E0E0EDF7E0A3
:10F3A0003197F1F70196883C9105C1F78091C00033
:10F3B00087FFEFCF15B8D9C08FEF87B90DC088B1DF
:10F3C000809588B980E090E0E0EDF7E03197F1F7C3
:10F3D0000196883C9105C1F78091C00087FFEFCF6F
:10F3E00018B8C3C08FEF8AB90DC08BB180958BB9A7
:10F3F00080E090E0E0EDF7E03197F1F70196883C8E
:10F400009105C1F78091C00087FFEFCF1BB8ADC059
:10F410008FEF8DB90DC08EB180958EB980E090E0F0
:10F42000E0EDF7E03197F1F70196883C9105C1F7DF
:10F430008091C00087FFEFCF1EB897C08FEF80BBD1
:10F440000DC081B3809581BB80E090E0E0EDF7E0F6
:10F450003197F1F70196883C9105C1F78091C00082
:10F4600087FFEFCF11BA81C08FEF83BB0DC084B38C
:10F47000809584BB80E090E0E0EDF7E03197F1F714
:10F480000196883C9105C1F78091C00087FFEFCFBE
:10F4900014BA6BC08FEF809301010FC080910201FD
:10F4A00080958093020180E090E0E0EDF7E03197F5
:10F4B000F1F70196883C9105C1F78091C00087FF64
:10F4C000EDCF1092020151C08FEF809304010FC065
:10F4D0008091050180958093050180E090E0E0ED4A
:10F4E000F7E03197F1F70196883C9105C1F78091DB
:10F4F000C00087FFEDCF1092050137C08FEF8093DA
:10F5000007010FC08091080180958093080180E079
:10F5100090E0E0EDF7E03197F1F70196883C910536
:10F52000C1F78091C00087FFEDCF109208011DC088
:10F530008FEF80930A010FC080910B01809580931B
:10F540000B0180E090E0E0EDF7E03197F1F70196F4
:10F55000883C9105C1F78091C00087FFEDCF1092E4
:10F560000B0103C085E292EEEEC98091C00087FFD7
:10F57000FCCF8091C600EAC988E392EEE4C98CE131
:10F5800091EEE1C988249924933011F1943028F444
:10F59000913089F09230B8F408C0953061F195301F
:10F5A000F0F0963009F048C043C02B3109F042C951
:10F5B00091E06BE13FC96227C15DDE4F2883CF52E6
:10F5C000D14092E037C9B22FA0E0622793E032C960
:10F5D000822F90E0A82BB92B622794E02BC92E3004
:10F5E00009F039C3622795E0C05DDE4F19821882A9
:10F5F000C053D1401FC9E1E0F0E0EC0FFD1FC05D3A
:10F60000DE4F08811981C053D140E00FF11F2083E4
:10F610000F5F1F4FC05DDE4F19830883C053D14079
:10F6200062270A171B0709F005C9D80196E002C92D
:10F63000261709F010C303C0973009F0FBC87724E0
:10F640009981933109F412C19431C8F4963009F4C8
:10F65000D8C0973050F4923009F406C1933009F4C1
:10F660006DC0913009F059C253C0913109F477C08F
:10F67000923108F0BBC0903109F04FC2F5C098310B
:10F6800009F487C0993150F4953109F4EFC09531F0
:10F6900008F4C6C1963109F040C2C2C19A3109F4DA
:10F6A0006CC09A3108F491C09B3109F45BC09D3164
:10F6B00009F033C29D81903359F48F81882311F46E
:10F6C0009EE11CC0813011F091E018C098E916C08D
:10F6D000892F807591F0903539F4E0E0F0E089E011
:10F6E0008093570094910AC0983539F4E3E0F0E034
:10F6F00089E080935700949101C090E01A821B82A8
:10F700008D818C831D829E831F8227E030E009C299
:10F710001A8288E08B8381E48C8386E58D8382E581
:10F720008E8389E48F8383E5888780E589878FE5E9
:10F730008A8782E38B872BE030E0F3C18A818139AD
:10F7400041F0823941F0803911F48FE005C080E04A
:10F7500003C082E001C08AE01A828B8344C0772410
:10F76000739482C08D81882311F48EE12CC0813086
:10F7700011F081E028C088E926C01A82E1E0F0E0BB
:10F7800089E08093570084918B831C8224E030E0D1
:10F79000C8C18B81803589F48C81883039F4E2E0EE
:10F7A000F0E089E08093570084910DC0E0E0F0E044
:10F7B00089E080935700849106C0E3E0F0E089E09F
:10F7C0008093570084911A82DFCF8D81836C99E0FA
:10F7D000E1E0F0E0082E90935700E89507B600FCB2
:10F7E000FDCF1A821B8223E030E09BC180EC8A832C
:10F7F000CE5CDE4F188219821A821B82C253D1401E
:10F800008EC18A8190E0A0E0B0E0582F44273327D2
:10F8100022278B8190E0A0E0B0E0DC0199278827C7
:10F82000282B392B4A2B5B2B8D8190E0A0E0B0E098
:10F83000282B392B4A2B5B2B8C8190E0A0E0B0E089
:10F84000BA2FA92F982F8827282B392B4A2B5B2BCF
:10F85000220F331F441F551FC05EDE4F288339839C
:10F860004A835B83C052D1401A8259C13A81C95C34
:10F87000DE4F3883C753D140CA5CDE4F1882C6536F
:10F88000D1408B81C82EDD24CA5CDE4F488159816E
:10F89000C653D140C42AD52A933109F082C0CE5C28
:10F8A000DE4F88819981AA81BB81C253D1408050AB
:10F8B000904CA340B04030F583E0CE5CDE4FE88052
:10F8C000F9800A811B81C253D140F70100935B008C
:10F8D00080935700E89507B600FCFDCFCE5CDE4F65
:10F8E000088119812A813B81C253D14000501F4FAA
:10F8F0002F4F3F4FCE5CDE4F088319832A833B8313
:10F90000C253D140C05EDE4F488159816A817B81FC
:10F91000C052D140DE011B9631E08C9111962C91A2
:10F9200011971296C75CDE4F2883C953D140C85C3B
:10F93000DE4F1882C853D14090E0C85CDE4FE881AA
:10F94000F981C853D1408E2B9F2B0C01FA01609393
:10F950005B0030935700E89511244E5F5F4F6F4F67
:10F960007F4F0EEFE02E0FEFF02ECE0CDF1CC114F8
:10F97000D10499F685E0C05EDE4F088119812A81A5
:10F980003B81C052D140F80120935B008093570027
:10F99000E89507B600FCFDCF81E180935700E8951C
:10F9A00035C0C05EDE4F88819981AA81BB81C0527B
:10F9B000D140B695A795979587957C018601ABE0D8
:10F9C000AA2EB12CAC0EBD1E0BC0D5016D915D01F0
:10F9D000C7010F947FFE0894E11CF11C01501040F8
:10F9E0000115110591F7A60160E070E0440F551F65
:10F9F000661F771FC05EDE4FE880F9800A811B8199
:10FA0000C052D1404E0D5F1D601F711F1A82C05E33
:10FA1000DE4F488359836A837B83C052D1407FC0C5
:10FA2000FA80C55CDE4FF882CB53D140C65CDE4F16
:10FA30001882CA53D1408B81C82EDD24C65CDE4FAC
:10FA400008811981CA53D140C02AD12A1A828981DA
:10FA5000BE016D5F7F4F843121F59601C05EDE4FA0
:10FA6000E880F9800A811B81C052D1400BBFF701A9
:10FA700087919691DB018C9311969C936E5F7F4FDB
:10FA8000D801C7010296A11DB11DC05EDE4F88835B
:10FA90009983AA83BB83C052D14022503040F1F6F3
:10FAA00036C0C05EDE4F288139814A815B81C052F9
:10FAB000D1400894C108D108760100E010E0089414
:10FAC000C11CD11C0894E11CF11C011D111DE20E8A
:10FAD000F31E041F151F21BDBB27A52F942F832FB5
:10FAE00082BD2F5F3F4F4F4F5F4FF89A80B5DB01CC
:10FAF0008D93BD012E153F054007510761F7C05E8C
:10FB0000DE4F288339834A835B83C052D1409601FC
:10FB10002D5F3F4FFB01108204C080EC8A8322E0FE
:10FB200030E08BE18093C6008091C00086FFFCCF5F
:10FB30008091C00080648093C000C15DDE4FF88179
:10FB4000CF52D140F093C6008091C00086FFFCCF19
:10FB50008091C00080648093C000432F3093C60022
:10FB60008091C00086FFFCCF8091C00080648093AC
:10FB7000C000922F2093C6008091C00086FFFCCF6A
:10FB80008091C00080648093C0008EE08093C600A6
:10FB90008091C00086FFFCCF8091C000806480937C
:10FBA000C00065E1C15DDE4FE880CF52D1406E25D7
:10FBB00069276427FE01319610C090819093C6009A
:10FBC0008091C00086FFFCCF31968091C000806498
:10FBD0008093C0006927215030402115310569F715
:10FBE0006093C6008091C00086FFFCCF8091C0006A
:10FBF00080648093C00085B1805885B9772081F4F6
:10FC0000C15DDE4F0881CF52D1400F5FC15DDE4F35
:10FC10000883CF52D14090E0A0E0B0E00D941AF4F8
:10FC200027982F9880E090E020ED37E0F901319798
:10FC3000F1F7019684369105C9F700008091C00064
:10FC40008D7F8093C00081E180935700E895EE2777
:10FC5000FF270994FFCF90E00D941AF497FB092E2B
:10FC600007260AD077FD04D02ED006D000201AF443
:10FC7000709561957F4F0895F6F7909581959F4F08
:10FC80000895A1E21A2EAA1BBB1BFD010DC0AA1FDD
:10FC9000BB1FEE1FFF1FA217B307E407F50720F0F5
:10FCA000A21BB30BE40BF50B661F771F881F991F70
:10FCB0001A9469F760957095809590959B01AC01B9
:10FCC000BD01CF010895AA1BBB1B51E107C0AA1FAC
:10FCD000BB1FA617B70710F0A61BB70B881F991FED
:10FCE0005A95A9F780959095BC01CD010895F99991
:10FCF000FECF92BD81BDF89A992780B50895262F31
:10FD0000F999FECF1FBA92BD81BD20BD0FB6F89400
:0EFD1000FA9AF99A0FBE01960895F894FFCF63
:00000001FF
