:100000000C94AF010C94E0010C94E0010C94E0011D
:100010000C94E0010C94E0010C94E0010C94E001DC
:100020000C94E0010C94E0010C94E0010C94E001CC
:100030000C94E0010C94440C0C94E0010C94E0014D
:100040000C94E0010C94E0010C94E0010C94E001AC
:100050000C94E0010C94E0010C94E0010C94FA0B78
:100060000C94E0010C94CE0C0C94A40C0C94E001C4
:100070000C94E0010C94E0010C94E0010C94E0017C
:100080000C94E0010C94E0010C94E0010C94E0016C
:100090000C94E0010C94E0010C94E0010C94040D2C
:1000A0000C94E0010C94E0010C94E0010C94E0014C
:1000B0000C94E0010C94E0010C94E0010C94E0013C
:1000C0000C94E0010C94E0010C94E0010C94E0012C
:1000D0000C94E0010C94E0010C94E0010C94E0011C
:1000E0000C94E00107634236B79BD8A71A396856CB
:1000F00018AEBAAB558C1D3CB7CC5763BD6DEDFD4A
:10010000753EF6177231BF000000803F0800000006
:10011000BE922449123EABAAAA2ABECDCCCC4C3EFC
:1001200000000080BEABAAAAAA3E00000000BF00EB
:100130000000803F0000000000084178D3BB4387E7
:10014000D1133D190E3CC3BD4282AD2B3E68EC82FB
:1001500076BED98FE1A93E4C80EFFFBE01C4FF7F80
:100160003F00000000000C9497020C9481060C9450
:10017000A0020C94F8090C94AE060C948D020C9419
:1001800060020C9473080C9434130C9452130C9466
:100190005C130C9475020C9433060C9464070C9455
:1001A00076130C9489020C943E130C9499130C94BE
:1001B0006C130C9448130C947F020C9493020C94CF
:1001C000BD060C9489090C949B020C943F080C9476
:1001D00066020C94B7130C94DF060C94D1060C94B1
:1001E00046080C948A130C94B5070C947B020C946B
:1001F0001D080C9480130C9439130C946E020C940B
:10020000CB130C94A1020C94A3130C94C1130C9463
:10021000AD130C9485020C94A5020C94280E0C943A
:1002200072020C9464130C9417070C941C080C9421
:100230006A020C9434060C942C080000210024005F
:1002400027002A002D0030003300010100000401C6
:1002500007010A0100000A0B02090C0D0E08070332
:100260000401000000000000000000000000000089
:10027000000000000000000000000000000000007E
:10028000121110000000000000000000000000003B
:10029000000000000000000000000000200023001B
:1002A000260029002C002F0032000001000003016D
:1002B0000601090100002200250028002B002E0065
:1002C0003100340002010000050108010B010205A4
:1002D000050505070508080808020202020A0A08BF
:1002E00008040404040101010101010101030303E5
:1002F0000303030303040707070C0C0C0C0C0C0C82
:100300000C0202020206060606060606060B0B0B88
:100310000B0B0B0B0B0102102020080810204010C3
:1003200020408002010201080402010102040810B9
:1003300020408080402010080402018004020180D7
:100340004020100804020108040201010204081000
:10035000204080010204081020408000280E112453
:100360001FBECFEFD1E2DEBFCDBF00E00CBF14E077
:10037000A0E0B2E0E4EAFFE200E00BBF02C00790B9
:100380000D92A832B107D9F725E0A8E2B4E001C088
:100390001D92A43DB207E1F711E0CFEAD1E000E001
:1003A00006C021970109802FFE010E94C817CE3A8E
:1003B000D10780E00807A9F70E94900E0C94D0178F
:1003C0000C940000ECE0F5E0A089B18982E08C9308
:1003D000A485B5851C92A685B7858FEC8C93108E6D
:1003E000A489B58986E08C93A289B3898C918061B8
:1003F0008C93A289B3898C9188608C93A289B389EC
:100400008C9180688C930288F389E02D80818F7DA8
:1004100080830895CF92DF92EF92FF92CF93DF9384
:10042000B091BC05A0E08111AB2F8091BD0590E09B
:10043000880F991FAC0146565D4FC090C205D09001
:10044000C305E090C405F090C50530E020E0FA0156
:10045000C591D491E881B90190E080E0EB23EA13E3
:100460000AC02F5F3F4F6C157D058E059F0578F301
:100470006FEF7FEFCB01DF91CF91FF90EF90DF9097
:10048000CF9008958150823108F05AC0E82FF0E0F3
:100490008827E25BFD4F8F4F0C94C8176E027202E3
:1004A000600266026A02A00275027B027F02850278
:1004B00089028D0293029702A0029B02A102A5026B
:1004C000809180008F7780938000089580918000D4
:1004D0008F7DF9CF80918000877FF5CF84B58F77AE
:1004E00084BD089584B58F7DFBCF8091B0008F7758
:1004F0008093B00008958091B0008F7DF9CF8091F6
:1005000090008F77809390000895809190008F7D68
:10051000F9CF80919000877FF5CF8091A0008F77F1
:100520008093A00008958091A0008F7DF9CF8091E5
:10053000A000877FF5CF809120018F7780932001E5
:100540000895809120018F7DF9CF80912001877FD0
:10055000F5CF1F93CF93DF93282F30E0F901EC5AAA
:10056000FD4F8491F901EB5EFC4FD491F901E15309
:10057000FD4FC491CC23A9F0162F81110E94420295
:10058000EC2FF0E0EE0FFF1FEC54FD4FA591B4915E
:100590008FB7F894EC91111108C0D095DE23DC934D
:1005A0008FBFDF91CF911F910895DE2BF8CFCF93AE
:1005B000DF9390E0FC01EB5EFC4F249181539D4F53
:1005C000FC0184918823D1F090E0880F991FFC01F1
:1005D000E65CFD4FA591B491FC01EC54FD4FC59133
:1005E000D491623071F49FB7F8943C91822F80953A
:1005F00083238C93E8812E2B28839FBFDF91CF919B
:1006000008958FB7F894EC912E2B2C938FBFF6CFD3
:10061000CF9380910002863021F08F3F59F1CF9126
:100620000895EEECF2E0C491C7FDF9CF61E086E0F9
:100630000E94D702CC2309F4F0C0C23009F004C1F3
:100640008091B100887F83608093B1008CE78093B4
:10065000B3008FEF9FEFDC018093000590930105BD
:10066000A0930205B093030580917000826080938F
:100670007000D5CF86E080930002EEECF2E0C491EA
:100680008C2FCF3F61F2C23009F468C060F4CC23F4
:1006900079F1C13009F444C087FDC1CF61E086E043
:1006A0000E94D702CACFC43009F499C008F478C0B8
:1006B000C53091F710922001109221018091210103
:1006C00088608093210180912101816080932101C4
:1006D000E5EDF2E0E491F0E0EE0FFF1FEC54FD4F8A
:1006E00085919491EBE1F3E0E491E093EC049ECFEB
:1006F00014BC15BC84B5826084BD85B5816085BDA0
:10070000E5EDF2E0E491F0E0EE0FFF1FEC54FD4F59
:1007100085919491EBE1F3E0E491E093F30486CFCB
:1007200010928000109281008091810088608093F7
:10073000810080918100816080938100E5EDF2E08D
:10074000E491F0E0EE0FFF1FEC54FD4F8591949182
:10075000EBE1F3E0E491E093F20468CF1092B00093
:100760001092B1008091B00082608093B0008091BF
:10077000B10081608093B100E5EDF2E0E491F0E03A
:10078000EE0FFF1FEC54FD4F859194919093F1046F
:100790008093F004EBE1F3E0E491E093EF0446CFC3
:1007A0001092900010929100809191008860809347
:1007B000910080919100816080939100E5EDF2E0DD
:1007C000E491F0E0EE0FFF1FEC54FD4F8591949102
:1007D000EBE1F3E0E491E093EE04C3E027CF109265
:1007E000A0001092A1008091A10088608093A100D8
:1007F0008091A10081608093A100E5EDF2E0E49199
:10080000F0E0EE0FFF1FEC54FD4F85919491EBE16A
:10081000F3E0E491E093ED0409CF85B5887F836030
:1008200085BD8DE387BD8FEF9FEFDC0180930805C9
:1008300090930905A0930A05B0930B0580916E0073
:10084000826080936E00EBCEC130E9F4809181002C
:10085000887F8160809381008FE99FE09093890079
:10086000809388008FEF9FEFDC01809304059093C5
:100870000505A0930605B093070580916F0082607F
:1008800080936F00CCCEC330E9F480919100887FD3
:100890008160809391008FE99FE09093990080930D
:1008A00098008FEF9FEFDC018093FC049093FD0490
:1008B000A093FE04B093FF04809171008260809346
:1008C0007100ADCEC430E9F48091A100887F8160D1
:1008D0008093A1008FE99FE09093A9008093A800E6
:1008E0008FEF9FEFDC018093F8049093F904A093BD
:1008F000FA04B093FB0480917200826080937200CE
:100900008ECEC530E9F480912101887F816080938B
:1009100021018FE99FE090932901809328018FEFB7
:100920009FEFDC018093F4049093F504A093F60408
:10093000B093F704809173008260809373006FCE50
:10094000C23091F034F4CC2369F0C13009F067CEA5
:1009500083CFC43009F4BECF0CF49DCFC53009F06D
:100960005ECED7CF8FE95ECF8FE971CE90917B00BD
:10097000977F90937B008653806480937C00809166
:100980007A00806480937A0080917A0086FDFCCFA3
:10099000809178009091790008953FB7F894809104
:1009A000E4049091E504A091E604B091E70426B533
:1009B000A89B05C02F3F19F00196A11DB11D3FBF97
:1009C000BA2FA92F982F8827BC01CD01620F711D66
:1009D000811D911D42E0660F771F881F991F4A9560
:1009E000D1F708958F929F92AF92BF92CF92DF92EC
:1009F000EF92FF924B015C010E94CD046B017C01E0
:100A00000E94CD046C197D098E099F09683E7340D0
:100A100081059105A8F321E0821A9108A108B10887
:100A200088EEC80E83E0D81EE11CF11C81149104ED
:100A3000A104B10429F7FF90EF90DF90CF90BF9011
:100A4000AF909F908F900895CF92DF92EF92FF9298
:100A50000F931F93CF93DF93CDB7DEB7C054D14030
:100A60000FB6F894DEBF0FBECDBF2FB7F8948091BC
:100A7000E8049091E904A091EA04B091EB042FBF3F
:100A80004091BE055091BF056091C0057091C105B0
:100A90008C019D01041B150B260B370BB901A80116
:100AA000403D57406105710590F48091C605C05CDA
:100AB000DE4F0FB6F894DEBF0FBECDBFDF91CF91F2
:100AC0001F910F91FF90EF90DF90CF90089580934A
:100AD000BE059093BF05A093C005B093C1051092C9
:100AE000B9051092B8051092B7051092B60510928C
:100AF000B50562E08091BA050E94D70261E070E01E
:100B000080E090E00E94F20461E08091BA050E94CA
:100B1000D70260E08091BA050E94A9028091BB05CE
:100B20008551823020F58BE291E10197F1F762E087
:100B30008091BA050E94D7028091C70590E082306B
:100B4000910538F0880F991F880F991F0597019715
:100B5000F1F7F89480E00E940A026F3F7F4F8F4FB9
:100B60009F4F61F41092C605789480E0A0CF64E1B5
:100B700070E080E090E00E94F204D9CF81E00E9412
:100B80000A026F3F7F4F8F4F9F4F61F38E010F5FC0
:100B90001F4F6E018FEBC81A8EEFD80A780180E0E4
:100BA0000E940A02F701608371838283938381E04C
:100BB0000E940A02F7016483758386839783F8E0B5
:100BC000EF0EF11CEC14FD0451F7789430E020E0B6
:100BD000F801C080D180E280F38044815581668134
:100BE0007781FFEFCF16DF06EF06FF0631F04F3FAC
:100BF0008FEF58076807780719F41092C605B5CF2C
:100C0000F90183E0F595E7958A95E1F7EB54FA4F02
:100C10008081880FC416D506E606F70610F180839A
:100C20002F5F3F4F085F1F4F2832310589F64091F3
:100C3000B9052091B5058091B605280F3327331FDC
:100C40008091B705280F311D8091B805820F932F31
:100C5000911D99274817190681F681E08093C605F2
:100C600026CF8160DCCF089508959091000289130A
:100C70000DC0EEECF2E0E4919FEF90930002E230C1
:100C8000E1F038F4EE2381F0E13089F060E00C947B
:100C9000A902E43049F110F1E530C1F790917300F9
:100CA0009D7F90937300F2CF10926E00EFCF9091E2
:100CB0006F009D7F90936F00E9CF909170009D7FB2
:100CC0009093700091E09093B0009091B100987F64
:100CD00094609093B1001092B300D8CF90917100BE
:100CE0009D7F90937100D2CF909172009D7F9093E1
:100CF0007200CCCFDC01ED91FC910190F081E02DF0
:100D00001994AF92BF92CF92DF92EF92FF920F931E
:100D10001F93CF93DF936C017B018B01040F151F91
:100D2000EB015E01AE18BF08C017D10759F06991F9
:100D3000D601ED91FC910190F081E02DC60119954D
:100D4000892B79F7C501DF91CF911F910F91FF900A
:100D5000EF90DF90CF90BF90AF900895FC01538D3E
:100D6000448D252F30E0842F90E0821B930B541785
:100D700010F0CF96089501970895FC01918D828D12
:100D8000981761F0A28DAE0FBF2FB11D5D968C91AB
:100D9000928D9F5F9F73928F90E008958FEF9FEFEA
:100DA0000895FC01918D828D981731F0828DE80FA6
:100DB000F11D858D90E008958FEF9FEF0895FC0160
:100DC000918D228D892F90E0805C9F4F821B91092D
:100DD0008F73992708958CE095E00E94DF0621E04B
:100DE000892B09F420E0822F0895FC01A48DA80F1F
:100DF000B92FB11DA35ABF4F2C91848D90E001965D
:100E00008F739927848FA689B7892C93A089B1897C
:100E10008C91837080648C93938D848D981306C01D
:100E20000288F389E02D80818F7D80830895EF9281
:100E3000FF920F931F93CF93DF93EC0181E0888F94
:100E40009B8D8C8D98131AC0E889F989808185FF64
:100E500015C09FB7F894EE89FF896083E889F98906
:100E600080818370806480839FBF81E090E0DF9108
:100E7000CF911F910F91FF90EF900895F62E0B8D5B
:100E800010E00F5F1F4F0F731127E02E8C8D8E1116
:100E90000CC00FB607FCFACFE889F989808185FF7D
:100EA000F5CFCE010E94F506F1CFEB8DEC0FFD2FB3
:100EB000F11DE35AFF4FF0829FB7F8940B8FEA8938
:100EC000FB8980818062CFCFCF93DF93EC01888D47
:100ED0008823B9F0AA89BB89E889F9898C9185FDB5
:100EE00003C0808186FD0DC00FB607FCF7CF8C9143
:100EF00085FFF2CF808185FFEDCFCE010E94F50600
:100F0000E9CFDF91CF91089580E090E0892B29F01F
:100F10000E94EB0681110E94000080E090E0892B86
:100F200049F080E090E0892B29F00E9400008111B7
:100F30000E94000080E090E0892B49F080E090E082
:100F4000892B29F00E94000081110E94000080E09E
:100F500090E0892B49F080E090E0892B29F00E94F5
:100F6000000081110C9400000895089520916904F7
:100F7000260F3327331F21323105ECF42091B204C0
:100F8000FC0190E080E0243069F082E00895A091B7
:100F900069042191AC01475B5B4FA40FB52FB11DD4
:100FA0002C930196861798F380916904680F6093DB
:100FB000690480E0089581E008951092B20481E010
:100FC0008093B10410928C0461E084E10E94A90234
:100FD00061E085E10E94A902E9EBF0E080818E7F6B
:100FE000808380818D7F808388E48093B80085E44E
:100FF0008093BC000895CF93DF9391E090934804D1
:101000008823B9F0C091B800D091BA008091BC009B
:101010008A7B8093BC0060E084E10E94A90260E0CA
:1010200085E10E94A9020E94DD07D093BA00C09317
:10103000B800DF91CF9108950895E091E104809187
:10104000E004E81730F4F0E0E85DFB4F808190E0C9
:1010500008958FEF9FEF08959091E1048091E0044F
:101060002FEF3FEF981748F4E92FF0E0E85DFB4FD2
:10107000208130E09F5F9093E104C9010895809141
:10108000E0049091E104891B990B0895CF92DF92BF
:10109000EF92FF920F931F93CF93DF937C01CB01CD
:1010A0008A012091B804222389F0EB016B01C40E60
:1010B000D51ECC15DD0569F06991D701ED91FC9144
:1010C0000190F081E02DC7011995F3CF642F0E94A4
:1010D000B607C801DF91CF911F910F91FF90EF905C
:1010E000DF90CF900895CF93DF931F92CDB7DEB7F7
:1010F00069832091B8042223F9F02091DE04203284
:1011000058F021E030E0FC013383228390E080E05E
:101110000F90DF91CF9108958091DF04E82FF0E0E8
:10112000E754FB4F998190838F5F8093DF04809316
:10113000DE0481E090E0ECCF61E0CE0101960E94F8
:10114000B607F7CFCF92DF92EF92FF920F931F93E4
:10115000CF93DF93FC01C48121E02093B804C093B6
:10116000D9041092DF041092DE048385682B89EA8B
:1011700095E00E947308D091DE04D13208F092C04D
:101180000E94CD046B017C018091B204811165C085
:1011900082E08093B20481E08093B1048FEF80936A
:1011A000B0041092AF04D093AE04A9EBB4E0EEE823
:1011B000F4E080E0D81385C010928D0480918D04F6
:1011C000CC0FC82BC0938D0480918C04813009F022
:1011D0007CC010928C040E94CD046B017C01809134
:1011E0008D048093BB008091B4049091B504A091CC
:1011F000B604B091B704892B8A2B8B2B99F00E94EF
:10120000CD040091B4041091B5042091B60430913E
:10121000B7046C197D098E099F090617170728075F
:101220003907E0F18091BC0083FDD9CF85EC809334
:10123000BC000E94CD046B017C018091B20482301D
:1012400009F445C08091B0048F3F61F18091B004F2
:10125000803241F18091B00425C08091B404909116
:10126000B504A091B604B091B704892B8A2B8B2BBF
:1012700009F48ACF0E94CD040091B4041091B50402
:101280002091B6043091B7046C197D098E099F092D
:10129000061717072807390708F076CF8091B3049F
:1012A0000E94FB071092DF041092DE041092B80433
:1012B000DF91CF911F910F91FF90EF90DF90CF9032
:1012C00008959D9191938F5F75CF85EEB0CF8091FA
:1012D000B4049091B504A091B604B091B704892BE1
:1012E0008A2B8B2B09F4A9CF0E94CD040091B40462
:1012F0001091B5042091B6043091B7046C197D09A2
:101300008E099F09061717072807390708F095CF98
:10131000C5CF90E080E008950F931F93CF938C0189
:10132000C62F0E94A2086C2F6460C8010E94A20808
:101330006C2F6B7FC8010E94A20883EC90E001979C
:10134000F1F7CF911F910F9108950F931F93CF93B2
:10135000DF938C01D62FC42F607F642B0E948C09F1
:1013600080E1D89FB00111246C2BC801DF91CF918F
:101370001F910F910C948C09CF93DF9300D000D074
:101380001F921F92CDB7DEB798E0E1E0F2E0DE01F8
:10139000119601900D929A95E1F79091D0059617CC
:1013A00008F46FEF262F30E0220F331F41E050E0AA
:1013B0004C0F5D1F240F351FF9016081680F6068B5
:1013C00040E088EC95E028960FB6F894DEBF0FBE9B
:1013D000CDBFDF91CF910C94A50940E061E088EC8E
:1013E00095E00E94A5098BE39FE10197F1F708952D
:1013F00041E00E94A50981E090E00895FB01019081
:101400000020E9F73197AF01461B570BDC01ED9146
:10141000FC910280F381E02D19948F929F92AF92FC
:10142000BF92EF92FF920F931F93CF93DF93CDB7AD
:10143000DEB7A1970FB6F894DEBF0FBECDBF7C011B
:10144000FA01CB0119A2223008F42AE08E010F5DC7
:101450001F4F822E912CB12CA12CBF01A50194010C
:101460000E94A617F901CA016A300CF5605DD80127
:101470006E938D01232B242B252B79F790E080E0B0
:10148000109721F0BD01C7010E94FE09A1960FB679
:10149000F894DEBF0FBECDBFDF91CF911F910F91AA
:1014A000FF90EF90BF90AF909F908F900895695CF0
:1014B000DECFCF92DF92EF92FF920F931F93CF93E5
:1014C000DF936B01770FEE08FF08F7FE1BC0EC01FE
:1014D0006DE20E947A068C0144275527BA014C1907
:1014E0005D096E097F092AE0CE010E940D0A800F76
:1014F000911FDF91CF911F910F91FF90EF90DF909F
:10150000CF9008952AE0B701A601DF91CF911F91F6
:101510000F91FF90EF90DF90CF900C940D0ACF9237
:10152000DF92EF92FF92CF93DF936C01990FEE0859
:10153000FF08F7FE23C06DE28CE095E00E947A067A
:10154000EC0144275527BA014C195D096E097F0942
:101550002AE08CE095E00E940D0AC80FD91F69E3CC
:1015600072E08CE095E00E94FE098C0F9D1FDF91D8
:10157000CF91FF90EF90DF90CF9008952AE0B701D0
:10158000A6018CE095E00E940D0AEC01E8CFCF9314
:10159000DF93BC018CE095E00E94FE09EC0169E359
:1015A00072E08CE095E00E94FE098C0F9D1FDF9198
:1015B000CF9108952F923F924F925F926F927F92B8
:1015C0008F929F92AF92BF92CF92DF92EF92FF9253
:1015D0001F93CF93DF93EC016A017B01722EAB0165
:1015E0009601CB01B6010E946C166CE372E081118A
:1015F00026C046015701E894B7F82FEF3FEF4FE7B9
:101600005FE7C501B4010E946C1681110CC02FEF79
:101610003FEF4FE75FE7C501B4010E94521460E459
:1016200072E0181664F02FEF3FEF4FE75FE4C70159
:10163000B6010E94AA151816B4F464E472E0CE0153
:10164000DF91CF911F91FF90EF90DF90CF90BF90EF
:10165000AF909F908F907F906F905F904F903F9052
:101660002F900C94FE092FEF3FEF4FE75FECC7017F
:10167000B6010E94521487FDE0CF20E030E0A901BE
:10168000C701B6010E945214312C212C87FF09C0DA
:101690006DE2CE010E947A061C01F7FAF094F7F889
:1016A000F09410E060E070E080E09FE3711641F09C
:1016B00020E030E040E251E40E9457141F5FF6CF73
:1016C000A70196010E94E6132B013C010E94C91458
:1016D0004B015C012AE0BC01A401CE010E940D0A6D
:1016E0007C01E20CF31C1123C1F1C501B4010E947D
:1016F000F8149B01AC01C301B2010E94E5134B0138
:101700005C016EE2CE010E947A06E80EF91E1150CD
:1017100020F120E030E040E251E4C501B4010E9434
:10172000AF152B013C010E94C9144B01B12CA12C17
:101730002AE0B501A401CE010E940D0AE80EF91EAF
:10174000C501B4010E94F8149B01AC01C301B201B0
:101750000E94E5134B015C01DACFC701DF91CF9105
:101760001F91FF90EF90DF90CF90BF90AF909F9030
:101770008F907F906F905F904F903F902F90089543
:101780000C94FE0985ED8093BC008091B404909187
:10179000B504A091B604B091B7040796A11DB11D80
:1017A00023E0B695A795979587952A95D1F720912F
:1017B000BC0024FD03C01092B20408954091B4040B
:1017C0005091B5046091B6047091B704452B462B37
:1017D000472B69F30097A105B10541F02AE22A954C
:1017E000F1F700C00197A109B109E1CF8091B304DD
:1017F0000C94FB071F920F920FB60F9211242F9398
:101800003F938F939F93AF93BF938091E804909100
:10181000E904A091EA04B091EB043091E30423E0E1
:10182000230F2D3758F50196A11DB11D2093E30418
:101830008093E8049093E904A093EA04B093EB0446
:101840008091E4049091E504A091E604B091E7044E
:101850000196A11DB11D8093E4049093E504A0932B
:10186000E604B093E704BF91AF919F918F913F91B0
:101870002F910F900FBE0F901F90189526E8230F01
:101880000296A11DB11DD2CF1F920F920FB60F92DB
:1018900011240BB60F922F933F934F935F936F9347
:1018A0007F938F939F93AF93BF93EF93FF93809119
:1018B000000590910105A0910205B0910305892BC7
:1018C0008A2B8B2BE1F19091EF04E091F004F091E1
:1018D000F104808189278083809100059091010522
:1018E000A0910205B0910305181619061A061B06E9
:1018F0009CF48091000590910105A0910205B091A2
:1019000003050197A109B109809300059093010592
:10191000A0930205B0930305FF91EF91BF91AF91A2
:101920009F918F917F916F915F914F913F912F91F7
:101930000F900BBE0F900FBE0F901F9018958091C7
:1019400000020E943506E8CF1F920F920FB60F9249
:1019500011240BB60F922F933F934F935F936F9386
:101960007F938F939F93AF93BF93EF93FF938CE0FD
:1019700095E00E94F506FF91EF91BF91AF919F9185
:101980008F917F916F915F914F913F912F910F9028
:101990000BBE0F900FBE0F901F9018951F920F92C5
:1019A0000FB60F9211240BB60F922F938F939F9324
:1019B000EF93FF93E0911C05F0911D058081E0916C
:1019C0002205F091230582FD1DC09081809125059F
:1019D0008F5F8F7320912605821741F0E0912505D6
:1019E000F0E0E45FFA4F958F80932505FF91EF912A
:1019F0009F918F912F910F900BBE0F900FBE0F9064
:101A00001F9018958081F2CF1F920F920FB60F9200
:101A100011240BB60F922F933F934F935F936F93C5
:101A20007F938F939F93AF93BF93EF93FF93809197
:101A3000B900887F803609F44DC008F040C0883274
:101A400009F4A9C028F5803109F49DC0C8F48823A1
:101A500009F4FBC0883009F496C0FF91EF91BF9163
:101A6000AF919F918F917F916F915F914F913F9136
:101A70002F910F900BBE0F900FBE0F901F901895D7
:101A8000883109F488C0803241F78093B00414C0D3
:101A9000803409F49DC040F48033B9F38833E9F60B
:101AA0008093B00485ECB0C0803509F485C08835DA
:101AB00009F496C0883489F60E94C20BCECF8839CB
:101AC00009F48CC038F5883729F050F4883611F0C5
:101AD000803719F683E08093B20410928B0457C0CC
:101AE000883809F47BC0803919F0803809F0B5CF07
:101AF00080918B04803208F071C0E0918B0481E00A
:101B00008E0F80938B048091BB00F0E0E559FB4F72
:101B100080833DC0803B39F0E0F4803A09F479C01D
:101B2000883A09F09ACF84E08093B20410926A0454
:101B300010926904E091DC04F091DD041995809124
:101B4000690481110FC081E08093690410924904F7
:101B500009C0803C09F4A6CF883C09F4A3CF883B98
:101B600009F07BCFE0916A0481E08E0F80936A04D4
:101B7000F0E0E75BFB4F80818093BB0090916A04AB
:101B80008091690429C080918D048093BB0085EC0D
:101B90008093BC0062CF9091AF048091AE049817FF
:101BA00058F5E091AF0481E08E0F8093AF04F0E030
:101BB000E257FB4F8081E9CFE091AF0481E08E0FC7
:101BC0008093AF048091BB00F0E0E257FB4F80832D
:101BD0009091AF048091AE049817C8F285E8D8CFF1
:101BE000E091AF0481E08E0F8093AF048091BB0041
:101BF000F0E0E257FB4F80838091B10481115CCF0C
:101C000081E080938C0484EA8093BC001092B2043B
:101C100024CF85EC8093BC001092B20480918B0499
:101C2000803230F4E0918B04F0E0E559FB4F1082F4
:101C300060918B0470E0E091DA04F091DB048BE6B4
:101C400094E0199510928B0408CF1092B00434CF11
:101C5000ECE0F5E01382128288EE93E0A0E0B0E0C1
:101C600084839583A683B7832DE032E0318320837C
:101C700025EC30E03587248724EC30E03787268751
:101C800020EC30E0318B208B21EC30E0338B228B49
:101C900022EC30E0358B248B26EC30E0378B268B22
:101CA000118E128E138E148EE9EAF5E013821282E1
:101CB00084839583A683B7838FE192E091838083A9
:101CC000E8ECF5E01382128281E392E09183808355
:101CD00087E2848380E1818782E082871386A5EB97
:101CE000B5E088E015968C9315978BE016968C934B
:101CF0001697EDE1F3E0E4911796EC931797E7ED73
:101D0000F2E0E4911896EC93189740E85EE360E007
:101D100070E01D964D935D936D937C93509708955D
:101D2000CF93DF9300D000D000D01F921F92CDB789
:101D3000DEB7789484B5826084BD84B5816084BD4B
:101D400085B5826085BD85B5816085BD80916E0059
:101D5000816080936E00109281008091810082608A
:101D600080938100809181008160809381008091C7
:101D700080008160809380008091B10084608093B6
:101D8000B1008091B00081608093B000809191009B
:101D90008260809391008091910081608093910096
:101DA000809190008160809390008091A10082607A
:101DB0008093A1008091A10081608093A100809117
:101DC000A00081608093A0008091210182608093B7
:101DD0002101809121018160809321018091200166
:101DE00081608093200180917A00846080937A00E2
:101DF00080917A00826080937A0080917A0081607D
:101E000080937A0080917A00806880937A001092A3
:101E1000C1000E94E20188E492E00E94C70A109289
:101E2000E1041092E0041092DF041092DE040E949C
:101E3000DD0783E396E09093DD048093DC0484E384
:101E400096E09093DB048093DA041092CD058091A4
:101E5000D205823018F098E09093CD058093D0059C
:101E600062E370E080E090E00E94F2046091D305AC
:101E700088EC95E00E94A20868EE73E080E090E0B4
:101E80000E94F20460E388EC95E00E948C098BE4E8
:101E900096E40197F1F760E388EC95E00E948C09E5
:101EA0008BE496E40197F1F760E388EC95E00E94FB
:101EB0008C0983E592E00197F1F760E288EC95E008
:101EC0000E948C096091CD05606240E088EC95E04D
:101ED0000E94A50984E08093CE0540E06CE088EC88
:101EE00095E00E94A5090E94ED0982E08093CF054C
:101EF00040E066E088EC95E00E94A50940E062E0E1
:101F000088EC95E00E94A5098BE39FE10197F1F72A
:101F100088E08093D30560E088EC95E00E94A208F9
:101F200060E080E00E94BC0965E872E088EC95E022
:101F30000E94C00B62E08091BA050E94D7022FB7C1
:101F4000F8948091E8049091E904A091EA04B0919A
:101F5000EB042FBF805D9740A109B1098093BE05B6
:101F60009093BF05A093C005B093C10587E380930C
:101F7000C70561E089E00E94D70261E08AE00E9423
:101F8000D70261E08BE00E94D70261E08DE00E9401
:101F9000D70260E08AE00E94A90260E08BE00E9424
:101FA000A90261E089E00E94D70260E089E00E9416
:101FB000A90260E08DE00E94A90261E087E00E9432
:101FC000D70261E086E00E94D70261E087E00E94CC
:101FD000A9020E94E201FDE52F2EF2E03F2E0E94B1
:101FE0002405882341F08091BB058C3009F46AC038
:101FF00048F48B3031F1C12CD12C50ECE52E5FE749
:10200000F52E4BC085518230B0F78091B70589839A
:10201000682F70E0762F662766277F778091B80556
:10202000682B90E080E00E94F8142DEC3CEC4CEC26
:102030005DE30E94AF156B017C01998197FF2DC074
:1020400063C06091B70570E090E080E00E94F814F2
:102050006B017C019091B805998397FF0AC0A70195
:10206000960160E070E080E89FEB0E94E5136B0151
:102070007C01E981EF706E2F70E090E080E00E94BB
:10208000FA142DEC3CEC4CEC5DE30E94AF15A7017B
:1020900096010E94E6136B017C010E9424058823AF
:1020A00051F08091BB058B3030F08D3090F185512F
:1020B000823008F4CEC1812C912C40ECA42E4FE745
:1020C000B42E45C0F091B705F9836F2F70E090E012
:1020D00080E00E94F8146B017C016091B8056F707C
:1020E00070E090E080E00E94FA142DEC3CEC4CECA7
:1020F0005DE30E94AF15A70196010E94E6136B01F4
:102100007C01298127FFC9CFF7FAF094F7F8F09402
:10211000C4CF6091B60570E090E080E00E94FA14B0
:102120002DEC3CEC4CEC5DE30E94AF154B015C01E7
:102130006091B50570E090E080E00E94FA149B0188
:10214000AC01C501B4010E94E6134B015C0186E3BA
:102150000E94B6048C018091E204811118C187E3CA
:102160000E94B604BC01990F880B990B0E94FA14C7
:1021700020E030EC4FE754E40E94571420E030E0B8
:1021800040EA50E40E94AF159B01AC0160E070E0B2
:1021900088E492E40E94571420E030E040E251E4E9
:1021A0000E94E51320E030E040E251E40E94571421
:1021B0002B013C0120E030E040EC5FEB0E941C165C
:1021C00020E030E040E251E40E94AF1569837A8359
:1021D0008B839C832AE939E949E95FEBC301B201AA
:1021E0000E941C1620E030E040E251E40E94AF154E
:1021F0006D837E838F83988726E636E646EE5FEB17
:10220000C301B2010E941C1620E030E040E251E41C
:102210000E94AF152B013C01EBE5F2E08491ECE16B
:10222000F3E0F491FA87E6EDF2E0F491F987FF2309
:1022300009F421C181110E9442022985E22FF0E0B8
:10224000EE0FFF1FE656FD4FA591B4918C919A8534
:102250009823998791E080E0E985E11101C090E041
:102260009A878B8766E972E08CE095E00E94C00B4C
:1022700022E049815A816B817C818CE095E00E944B
:10228000DA0A6FE972E08CE095E00E94C00B22E070
:102290004D815E816F8178858CE095E00E94DA0A3D
:1022A0006EEA72E08CE095E00E94C00B22E0B30180
:1022B000A2018CE095E00E94DA0A6BEB72E08CE000
:1022C00095E00E94C00B8A859B85019709F0D6C0D6
:1022D00089E893E00E94C70A20E030E048EC53E42C
:1022E00069817A818B819C810E94AA151816B4F0AD
:1022F00020E030E048EC53E46D817E818F81988549
:102300000E94AA15181654F020E030E048EC53E47F
:10231000C301B2010E94AA1518163CF481E0809313
:10232000E2048DEC92E00E94C70AA7019601C70162
:10233000B6010E946C16811109C0A5019401C50166
:10234000B4010E946C16882309F49BC089EF92E0C7
:102350000E94C70A60E080E00E94BC0962E273E06C
:1023600088EC95E00E94C00B013223E012070CF4C8
:1023700018C261E08DE00E94A90284E893E00E9407
:10238000C70A60ED77E080E090E00E94F20480915F
:10239000E204882309F410C260E087E00E94A902E9
:1023A00060E08DE00E94A9020E9408030E940803D9
:1023B00064E670E080E090E00E94F20486E00E9413
:1023C000350664E670E080E090E00E94F20485E962
:1023D00093E00E94C70A0E94ED0960E080E00E943D
:1023E000BC0966EE73E088EC95E00E94C00B61E0EA
:1023F00080E00E94BC0962E074E088EC95E00E94F5
:10240000C00BE4E1F0E0FA83E98340E068E188ECA6
:1024100095E00E94A50989819A8101979A83898311
:10242000892B99F70E94ED0960E080E00E94BC09C9
:1024300063E174E088EC95E00E94C00B61E080E00D
:102440000E94BC0962E074E088EC95E00E94C00B39
:10245000ADCF6091B5057091B605762767277627D1
:1024600090E080E00E94F8142DEC3CEC4CEC5DE335
:102470000E94AF156ACE1B861A86F4CE81E993E0DE
:1024800029CF60E080E00E94BC0964E373E088EC3F
:1024900095E00E94C00B22E0B701A60188EC95E010
:1024A0000E94DA0A68E373E088EC95E00E94C00BB2
:1024B00022E0B501A40188EC95E00E94DA0A6EE3FF
:1024C00073E088EC95E00E94C00B61E080E00E9420
:1024D000BC0961E473E088EC95E00E94C00BB80190
:1024E00088EC95E00E94590A6FE273E088EC95E071
:1024F0000E94C00B67E473E08CE095E00E94C00B83
:1025000022E0B701A6018CE095E00E94DA0A65E5B9
:1025100073E08CE095E00E94C00B22E0B501A401BD
:102520008CE095E00E94DA0A64E673E08CE095E0C6
:102530000E94C00BC8010E948F0A20E030E048ECE6
:1025400051E4C701B6010E94521487FD2FC020E05C
:1025500030E048EC51E4C701B6010E94AA1587FD9E
:102560000AC020E030E040EF51E4C701B6010E940C
:10257000521487FD4FC020E030E040EF51E4C70126
:10258000B6010E94AA1587FD0DC020E030E04CE0A6
:1025900052E4C701B6010E94521426E9E22EF12C42
:1025A00087FD06C0EE24EA94F12C02C0F12CE12C48
:1025B00063E773E08CE095E00E94C00BC7010E94C6
:1025C0008F0A61E0E114F10409F460E08AE00E94FE
:1025D000A90260E08BE00E94A90261E089E00E940C
:1025E000D702E114F104D1F460E089E00E94A9026D
:1025F00061E089E00E94BC096FE773E088EC95E038
:102600000E94C00BB70188EC95E00E94590A61E373
:1026100073E0A6CE94E6E92EF12CCACF9FEFE9161F
:10262000F10411F461E0E1CFF1018491EFEFE80FE3
:10263000E23108F0B0C0F0E08827EE5DFC4E8F4F2D
:102640000C94C817341339133E1348135213CB1389
:102650005C1364136C13761380138A139913A313FA
:10266000CB13AD13B713C11384B5806884BDE7BC29
:10267000BFCF84B5806284BDE8BCBACF80918000B2
:10268000806880938000F0928900E0928800B0CF4B
:1026900080918000806280938000F0928B00E092B5
:1026A0008A00A6CF80918000886080938000F0929D
:1026B0008D00E0928C009CCF8091B0008068809368
:1026C000B000E092B30094CF8091B000806280931C
:1026D000B000E092B4008CCF80919000806880932D
:1026E0009000F0929900E092980082CF8091900043
:1026F000806280939000F0929B00E0929A0078CFE5
:1027000080919000886080939000F0929D00E0920C
:102710009C006ECF8091A00080688093A000809183
:10272000A0008F7B8093A000F092A900E092A80007
:102730005FCF8091A00080628093A000F092AB00F8
:10274000E092AA0055CF8091A00088608093A000FD
:10275000F092AD00E092AC004BCF809120018068F8
:1027600080932001F0922901E092280141CF8091CD
:102770002001806280932001F0922B01E0922A01D7
:1027800037CF80912001886080932001F0922D0145
:10279000E0922C012DCFF0E8EF16F1040CF042CFBF
:1027A00023CF083512400CF0ECCD60E08DE00E94A4
:1027B000A9028CE893E0E3CD68EE73E080E090E05E
:1027C0000E94F2040E9484070ACC5058BB27AA2713
:1027D0000E94FD130C9470150E94621538F00E943F
:1027E000691520F039F49F3F19F426F40C945F1515
:1027F0000EF4E095E7FB0C945915E92F0E94811522
:1028000058F3BA17620773078407950720F079F425
:10281000A6F50C94A3150EF4E0950B2EBA2FA02D5F
:102820000B01B90190010C01CA01A0011124FF277D
:10283000591B99F0593F50F4503E68F11A16F04078
:10284000A22F232F342F4427585FF3CF4695379577
:102850002795A795F0405395C9F77EF41F16BA0B3C
:10286000620B730B840BBAF09150A1F0FF0FBB1FEA
:10287000661F771F881FC2F70EC0BA0F621F731F33
:10288000841F48F4879577956795B795F7959E3F90
:1028900008F0B0CF9395880F08F09927EE0F979521
:1028A000879508950E94351508F481E008950E94E7
:1028B0006B140C9470150E94691558F00E946215F3
:1028C00040F029F45F3F29F00C94591551110C94F4
:1028D000A4150C945F150E94811568F39923B1F338
:1028E000552391F3951B550BBB27AA276217730736
:1028F000840738F09F5F5F4F220F331F441FAA1FCA
:10290000A9F335D00E2E3AF0E0E832D09150504085
:10291000E695001CCAF72BD0FE2F29D0660F771F33
:10292000881FBB1F261737074807AB07B0E809F019
:10293000BB0B802DBF01FF2793585F4F3AF09E3F9E
:10294000510578F00C9459150C94A4155F3FE4F3ED
:10295000983ED4F3869577956795B795F7959F5FE1
:10296000C9F7880F911D9695879597F90895E1E02D
:10297000660F771F881FBB1F621773078407BA078C
:1029800020F0621B730B840BBA0BEE1F88F7E095E7
:1029900008950E94891588F09F5798F0B92F9927BC
:1029A000B751B0F0E1F0660F771F881F991F1AF03A
:1029B000BA95C9F714C0B13091F00E94A315B1E0E7
:1029C00008950C94A315672F782F8827B85F39F0E6
:1029D000B93FCCF3869577956795B395D9F73EF4D3
:1029E00090958095709561957F4F8F4F9F4F08957B
:1029F000E89409C097FB3EF4909580957095619599
:102A00007F4F8F4F9F4F9923A9F0F92F96E9BB274E
:102A10009395F695879577956795B795F111F8CFCA
:102A2000FAF4BB0F11F460FF1BC06F5F7F4F8F4F35
:102A30009F4F16C0882311F096E911C0772321F02B
:102A40009EE8872F762F05C0662371F096E8862FC3
:102A500070E060E02AF09A95660F771F881FDAF71A
:102A6000880F9695879597F90895990F0008550F47
:102A7000AA0BE0E8FEEF16161706E807F907C0F004
:102A800012161306E407F50798F0621B730B840B0C
:102A9000950B39F40A2661F0232B242B252B21F4E6
:102AA00008950A2609F4A140A6958FEF811D811D86
:102AB000089597F99F6780E870E060E008959FEFC0
:102AC00080EC089500240A941616170618060906C5
:102AD000089500240A941216130614060506089594
:102AE000092E0394000C11F4882352F0BB0F40F41C
:102AF000BF2B11F460FF04C06F5F7F4F8F4F9F4F5C
:102B0000089557FD9058440F551F59F05F3F71F0DD
:102B10004795880F97FB991F61F09F3F79F0879544
:102B20000895121613061406551FF2CF4695F1DFCD
:102B300008C0161617061806991FF1CF869571055D
:102B4000610508940895E894BB2766277727CB0191
:102B500097F908950E94351508F48FEF08950E94A3
:102B6000C2150C9470150E94621538F00E94691508
:102B700020F0952311F00C9459150C945F15112435
:102B80000C94A4150E94811570F3959FC1F3950FC5
:102B900050E0551F629FF001729FBB27F00DB11DE1
:102BA000639FAA27F00DB11DAA1F649F6627B00D71
:102BB000A11D661F829F2227B00DA11D621F739F5A
:102BC000B00DA11D621F839FA00D611D221F749F68
:102BD0003327A00D611D231F849F600D211D822FAF
:102BE000762F6A2F11249F5750409AF0F1F08823D6
:102BF0004AF0EE0FFF1FBB1F661F771F881F915003
:102C00005040A9F79E3F510580F00C9459150C9443
:102C1000A4155F3FE4F3983ED4F3869577956795C6
:102C2000B795F795E7959F5FC1F7FE2B880F911D2C
:102C30009695879597F90895FA01EE0FFF1F309644
:102C400021053105A1F16115710561F48038BFE3FB
:102C50009B0749F168949038810561F08038BFEF97
:102C60009B0741F099234AF5FF3FE1053105210516
:102C700019F1E8940894E795D901AA2329F4AB2F18
:102C8000BE2FF85FD0F310C0FF5F70F4A695E0F799
:102C9000F73950F019F0FF3A38F49F779F930DD031
:102CA0000F9007FC9058089546F00C945F1560E073
:102CB00070E080E89FE308954FE79F775F934F931D
:102CC0003F932F930E941C172F913F914F915F913B
:102CD0000E94AF150C9479160E943515880B990B3C
:102CE000089529F416F00C9459150C94A3150C941E
:102CF0005F150E948915A8F39638A0F707F80F9280
:102D0000E8942BE33AEA48EB5FE70E94C5150F927F
:102D10000F920F924DB75EB70F920E946417E4EEC8
:102D2000F0E00E94AB164F915F91EF91FF91E59516
:102D3000EE1FFF1F49F0FE57E0684427EE0F441FC7
:102D4000FA95E1F74195550B0E94DE160F9007FEAC
:102D50000C94D2160895DF93CF931F930F93FF9295
:102D6000EF92DF927B018C01689406C0DA2EEF01AE
:102D70000E94C215FE01E894A591259135914591D7
:102D80005591A6F3EF010E94FD13FE019701A801E2
:102D9000DA9469F7DF90EF90FF900F911F91CF9138
:102DA000DF9108959B01AC0160E070E080E89FE353
:102DB0000C9457140C9459150C9498170E9489156B
:102DC000D8F39923C9F3940F511DA3F391505040A8
:102DD00094F059F0882332F0660F771F881F9150C6
:102DE0005040C1F79E3F51052CF7880F911D9695D5
:102DF000879597F908955F3FACF0983E9CF0BB270C
:102E0000869577956795B79508F4B1609395C1F766
:102E1000BB0F58F711F460FFE8CF6F5F7F4F8F4F04
:102E20009F4FE3CF0C94A41516F00C9498170C94B4
:102E30005F1568940C9459150E948915A8F399237D
:102E4000C1F3AEF3DF93CF931F930F93FF92C92F7C
:102E5000DD2788232AF02197660F771F881FDAF76E
:102E600020E030E040E85FEB9FE3883920F0803ECF
:102E700038F021968F770E94E613ECE0F1E004C071
:102E80000E94E613E9E3F1E00E94AB168B01BE015C
:102E9000EC01FB2E6F5771097595771F880B990B05
:102EA0000E94FA1428E132E741E35FE30E94C21571
:102EB000AF2D9801AE01FF900F911F91CF91DF913F
:102EC0000E94FD130C947015FA01DC01AA0FBB1FC0
:102ED0009B01AC01BF5728F42227332744275078A1
:102EE00020C0B75190F4AB2F002446953795279515
:102EF000011CA395D2F3002071F0220F331F441F51
:102F0000B395DAF30ED00C94E51361307105A0E8A7
:102F10008A07B94630F49B01AC01662777278827DA
:102F20009078309621F02083318342835383089533
:102F30009F3F31F0915020F4879577956795B7952D
:102F4000880F911D9695879597F90895A1E21A2EFD
:102F5000AA1BBB1BFD010DC0AA1FBB1FEE1FFF1F3D
:102F6000A217B307E407F50720F0A21BB30BE40B8D
:102F7000F50B661F771F881F991F1A9469F76095D4
:102F80007095809590959B01AC01BD01CF0108958E
:102F9000EE0FFF1F881F8BBF0790F691E02D19944D
:042FA000F894FFCFD3
:102FA400FF000040001400540000000000170781D7
:102FB40006AE066407DF06BD06D1060000000073F6
:102FC40008460889091C083F082C081D0800000051
:102FD40000F80981068909B5070D0A006E616E00C3
:102FE400696E66006F76660054656D706572617413
:102FF4007572652026204C44522D4261736564200D
:1030040046616E20616E64204C6967687420436F6A
:103014006E74726F6C6C657220496E697469616C50
:10302400697A65640046616E2026204C696768747D
:10303400204374726C00434F2050504D3A200020BE
:103044007C20536D6F6B652050504D3A2000207CDE
:10305400204761732050504D3A2000207C20526557
:103064006C6179205374617475733A2000E29AA0FC
:10307400EFB88F2047617320446574656374656499
:103084002120416C61726D204163746976617465BD
:103094006420E29AA0EFB88F004572726F723A20F2
:1030A4004661696C656420746F2072656164206692
:1030B400726F6D2044485431312073656E736F72A2
:1030C400210054656D70204572726F72212020209A
:1030D40020202000543A20004320483A2000252094
:1030E400004C44523A200054656D706572617475E9
:1030F40072653A200020432C2048756D6964697418
:10310400793A2000252C204C44522056616C756578
:103114003A200046616E2053706565643A2000468B
:10312400616E3A004C45443A204F4E004C45443AB7
:10313400204F464600F09F9AA820474153204C4513
:10314400414B41474520444554454354454420217F
:103154007C2053797374656D204F4646207C204251
:10316400757A7A6572204F4E20284D616E75616CB8
:10317400205265736574205265717569726564299E
:1031840020F09F9AA800476173204C65616B6167CA
:1031940065204465746563746564202120202020C3
:1031A400200053797374656D204F464620202020FB
:1031B400202000476173204465746563746564204E
:0831C400212020202020000042
:00000001FF
